:10000000803C002041B80000F316010015B8000044
:1000100015B8000015B8000015B800000000000079
:100020000000000000000000000000007DB400009F
:1000300015B800000000000029B4000015B8000049
:100040002DB500009D1E01002DB500002DB500004E
:100050002DB500002DB500002DB500002DB5000018
:100060004B1E01002DB500002DB50000831E0100C0
:100070002DB500002DB500002DB500002DB50000F8
:100080002DB500002DB500002DB500002DB50000E8
:100090002DB500002DB500002DB500002DB50000D8
:1000A0002DB500002DB500002DB500002DB50000C8
:1000B0002DB500002DB500002DB500002DB50000B8
:1000C0002DB500002DB500002DB500002DB50000A8
:0C00D0002DB500002DB500002DB500007E
:1000DC0053B94AB9002908BF00281CBF4FF0FF31A3
:1000EC004FF0FF3000F00CB8ADF1080C6DE904CE08
:1000FC0007F0CCFFDDF804E0DDE9022304B0704723
:10010C00704700BF1FB5144C207A8DF80100E079C0
:10011C008DF80000A079ADF804006079ADF802000C
:10012C00684603F039F808B1AD2110E0E0680290A0
:10013C0002A803F047F808B1B12108E007480068AD
:10014C00039003A809F024FC002803D0B521032058
:10015C0000F01AF91FBD0000780B002020040000ED
:10016C002DE9F041164F04461646F8780D4678B145
:10017C00287C68B120682522C01C20F00300206078
:10018C00297C06B1002000F0BFFC216808442060E7
:10019C00287D002812D0F87800280FD0287C002861
:1001AC000CD02068C01D20F007002060297D06B10E
:1001BC00002001F035F9216808442060BDE8F08189
:1001CC004000002010B528B11422044909F0B2FFF8
:1001DC00002010BD6FF0150010BD00004804000099
:1001EC0070B56FF02C0588BB234C607808B1A81152
:1001FC0070BDF9B16FF01500002AF9D01F4B092919
:10020C0034D2DFE801F03305330818331B332400F4
:10021C00107818701FE091780029E9D0D178002966
:10022C00E6D011781B29E3D351781B29E0D3106851
:10023C00C3F805000FE01068D8600CE0E17811B14C
:10024C0011780229D4D31078187404E00EE01188C8
:10025C00FF29CDD8197501220849002008F066F84D
:10026C00B0F5803F04DB6FF00B0070BD284670BD0D
:10027C000121A17070BD000040000020780B00200F
:10028C0010B5074C607820B103F088F8207807F09F
:10029C001DFE00F085FC00F05DFD0020607010BDBF
:1002AC004000002070B50C46050002D00CB1600770
:1002BC0002D06FF0150070BD00F0E6F8A8B128462A
:1002CC0007F0CAFD0A4D00220A492870204608F0A2
:1002DC002DF809F005FD0021287803F047F8FFF709
:1002EC0011FF01206870002070BD4FF0FF3070BD11
:1002FC0040000020780B002030B589B005000CD0F0
:10030C0007F052FD4FF0FF3420B107F003FCB0F5BD
:10031C00FA7F05D9204609B030BD6FF01500FAE719
:10032C00144C1548656000F0BDF900206070A07099
:10033C00E07001462422684609F076FF24220F491A
:10034C00684609F0F7FE242269460D4809F0F2FED2
:10035C00EFF3108472B600F031FC0A4800F006FD91
:10036C0018B1CB21032000F00FF804B962B60020BD
:10037C00D1E700004000002011010000240400001F
:10038C00780B0020C10400000EB572B6154A5568F2
:10039C00DDB1002203466E460A2403E0B0FBF4F004
:1003AC00521CD2B20028F9D1B0540AE0D8B2B0FB3A
:1003BC00F4F7B3FBF4F304FB1700521ED2B2303047
:1003CC00B054002AF2D13046A847BFF34F8F0648ED
:1003DC000168064A01F4E06111430160BFF34F8FDD
:1003EC0000BFFDE7400000200CED00E00400FA0522
:1003FC00074810B581784278114302D04FF0FF3096
:10040C0010BD0121C17002F0D9FF002010BD000009
:10041C00400000200100000001000000001B1B0335
:10042C00020000004C1D000003000000080000004A
:10043C00000000000000000000000000E07E2EC163
:10044C005E0585234615DCFA8E297D701093A5FC7C
:10045C00054A10B5526812B1BDE810401047922100
:10046C000420FFF791FF00009C0B0020054A10B5FB
:10047C00926812B1BDE81040104798210420FFF794
:10048C0083FF00009C0B00200548016829B14168DE
:10049C0019B1806808B10120704700207047000036
:1004AC009C0B002002490DC881E80D00002070470C
:1004BC009C0B0020F8B5124C0026256811E0009822
:1004CC00022802D003280CD106E0206810B10020CD
:1004DC00266005E028210CE0206868B10120266028
:1004EC00A847684600F008FC0028E8D0052805D08D
:1004FC0035210420FFF748FF2D21FAE7F8BD000055
:10050C00480000202DE9F04705462549001D01F55E
:10051C00847700260860387850B1BA783C46791C4C
:10052C002846921C09F006FE26700420BDE8F087D0
:10053C001B4800F0E3FD0446022804D0042C07D02D
:10054C00082C27D02AE01649284607F034FF25E06E
:10055C001349284607F094FFB0F5817F03D3C721D8
:10056C000820FFF711FF0028D5D095F8009095F8DA
:10057C000280484600F044F80028CCD0B9F13E0F78
:10058C000CD14046B8F1120FC5D000F04BF8002842
:10059C00C1D003E00249284607F03BFF2046C5E7DF
:1005AC00A80B002070B50A7882703AB3012A25D8BE
:1005BC001323037000230AE001EB430400EB430513
:1005CC00A678EE706488240A5B1C2C71DBB2934213
:1005DC00F2D300230BE000BF01EB430500EB430417
:1005EC002E796671AD882D0A5B1CA571DBB2934226
:1005FC00F2D3012101EB8200C0B270BD002070BDAE
:10060C00402803D2401EC1B2054805E0FF2805D0A2
:10061C004038C1B20248083008F0C4B90120704714
:10062C004C000020401EC1B2014808F0BBB90000CC
:10063C005C000020024902680A614068486170470A
:10064C004C000020054902680A60406842F48C2284
:10065C000A60034A10434860704700004C000020B9
:10066C00F807400207484FF0FF3100220160C90C27
:10067C00416000F108011F200A604A600831C1E99D
:10068C00000270474C00002010B5FFF7EBFF09F09B
:10069C0093F904460248006800B18047204610BD1B
:1006AC0064000020014908607047000064000020CD
:1006BC002DE9F04104464FF08050D0F8A0701F4D4A
:1006CC001E4E103D10220021204609F0ADFD1022D7
:1006DC00002104F1100009F0A7FD2868401C08D186
:1006EC006868401C05D1A868401C02D1E868401C11
:1006FC0007D028686A68A968EB6820616261A1610B
:10070C00E361002000F086FB8743F80713D13068C3
:10071C00401C08D17068401C05D1B068401C02D147
:10072C00F068401C07D032687068B168F3682260CA
:10073C006060A160E3600020BDE8F08190000010D3
:10074C0038B54FF0805104462248D1F8A010214D05
:10075C000268143D521C04D14268D2431204120C9C
:10076C0035D0C90733D001684068ADF80000C4F833
:10077C000110BDF80000A4F80500A07940F0C000FD
:10078C00A0712868401C0CD06868401C09D0A8686F
:10079C00401C06D0E868401C03D0002000F03AFB57
:1007AC0040B110220021E01D09F03EFD0120207017
:1007BC00002038BD2A686968A868EB68C4F807206F
:1007CC00C4F80B10C4F80F00C4F81330EEE7002087
:1007DC00EDE70000A40000100221018041800021FF
:1007EC000171E021417142F67E61C1800149816055
:1007FC0000207047C15E05852DE9F0418C79DDF84C
:10080C0018E0082C01D9DB212CE0DFF8A4C05CF83F
:10081C0020500DB1DC2125E0CD79002D45D06F00A5
:10082C000A371D68022C3D4401D9264601E04FF0E1
:10083C0002062E44A6F1010601D9254601E04FF02F
:10084C000205A5F1010526EA05068D882544A4F1CB
:10085C000104A5F1010525EA04054FF6FF74A54234
:10086C0003D3E7211720FFF78FFDBEF1000F18D13E
:10087C00F41B4CF820402580C879A0700120E07052
:10088C00227108684FF6F072000CE0800888208115
:10089C00002003E004EB4007401C7A81CF798742AB
:1008AC00F8D8C87900FB05601860BDE8F08100003D
:1008BC006800002030B503464FEA020003EB400409
:1008CC0064898C4209D09C78401CB0FBF4F504FB85
:1008DC001500C0B29042F1D1FF2030BD084A10B5CE
:1008EC0052F821400146204608F070FA0146FF28D4
:1008FC0004D02046BDE8104008F07CBA002010BDA2
:10090C006800002070B5044608784A7886B090429A
:10091C0002D94FF4847106E001943CB100236007C6
:10092C0006D040F219111720FFF72EFD0123F6E730
:10093C000B4800220B4E02604978D6E90050B6688D
:10094C0061F31F60CDE902500093049601AB02A93C
:10095C001046FFF751FF019806B0001B70BD000058
:10096C0068000020040A000010B5044680790E4986
:10097C0051F82000A8B14FF6F073E17982789142DA
:10098C000FD24A1CE27100EB410252899A42F4D018
:10099C0000EB41025289A28008F02CFA2060002062
:1009AC0010BD052010BD0000680000202DE9F041AD
:1009BC000646104850F821503146284608F006FAF1
:1009CC000446FF2812D0D5F8060021464FEA3047DE
:1009DC00284608F00FFA01463046B84705EB4401AB
:1009EC004FF6F07048810020BDE8F08143F2020020
:1009FC00FAE7000068000020F5960000A802080045
:100A0C000000000070B5144C23688BB1197A814238
:100A1C0012D95A6852F8201071B1002542F82050B2
:100A2C004A88186808F0C5F9216800200A7A0CE099
:100A3C00C6211820FFF7A8FC43F2020070BD4B68DA
:100A4C0053F8203033B9401CC0B28242F7D8086842
:100A5C0008F0A4F9002070BD6C0000202DE9F041D5
:100A6C000D46040090464FF0000606D00027A00764
:100A7C0005D086211820FFF787FC0127F7E7CDB1B9
:100A8C001146002008F06EF90C3000EB85068FB98A
:100A9C000A4F04F10C00AA003C602572606000EB68
:100AAC00850020600021606809F0BEFB4146386873
:100ABC0008F058F93046BDE8F08100006C000020C9
:100ACC000A4910B502460968002059B10B7A9342C5
:100ADC0007D9496851F82210002902D031F8040BCB
:100AEC00084410BDFA211820FFF74EFC6C000020C2
:100AFC0001484078704700007000002001484068B1
:100B0C0070470000700000202DE9F8430C460746A2
:100B1C001646252110460D46224608F0E2F880467E
:100B2C0057B13846414632462B46009408F094F8AB
:100B3C0003484760047046704046BDE8F8830000E7
:100B4C00700000200248427801784068FFF7DCBF53
:100B5C007000002030B50D4901204860821EC1F89C
:100B6C0008230B4988600023C1F80032C1F8082320
:100B7C00084C2360251D28608860C1F80823236079
:100B8C00286006490448086030BD000000E00040C1
:100B9C0000F0004000F500400000F63F08F5014071
:100BAC0010B5FFF7D7FF08F06FF90349014808604B
:100BBC0010BD00000000F63F08F5014010B5FFF72E
:100BCC00C9FF08F061F900F087F80549034808608F
:100BDC0000F0B8F8BDE8104000F0DCB80000F63FBB
:100BEC0008F501402DE9F84F8246384809F0B1F973
:100BFC00DFF8D8B028B101260BF10100FF210170FC
:100C0C0000E000264FF48075314C4FF000082F1D8A
:100C1C0001216160C4F80081C4F80481C4F804A502
:100C2C002160DFF8B0901CE0D9F80000C00618D5A0
:100C3C000E2008F038F9EFF31080009072B6032103
:100C4C002046C4F80413294608F03AF930B939465D
:100C5C00204608F035F908B909F012FA009800B9E5
:100C6C0062B62946204608F02BF928B939462046A9
:100C7C0008F026F90028D7D03946204608F020F98C
:100C8C000028C5D106BB9BF801108DF80010009907
:100C9C0000919DF8001009B1012500E000250BF131
:100CAC00010080F800800320C4F80803C4F8048114
:100CBC00C4F800810E2008F0F6F8044809F060F939
:100CCC0015B11120BDE8F88F0020FBE7740100205E
:100CDC0000E0004010ED00E010B5064809F04CF9BA
:100CEC0018B130211D20FFF74FFB02480021417045
:100CFC0010BD00007401002070B511490A68EAB1FA
:100D0C0000231D4601244A68521C4A60092A00D35C
:100D1C004D600E7904FA06F20E6816420BD0EFF312
:100D2C00108372B60C6894430C6003B962B64968C0
:100D3C000160002070BD5B1C092BE4D3052070BD45
:100D4C0078000020024800210160416070470000DB
:100D5C007800002010B5044C2078FF2803D007F051
:100D6C00B5F8FF20207010BD0000002010B5084C15
:100D7C00617809B10F2010BD07F06EF82070FF28C4
:100D8C0001D0002010BD73211F20FFF7FDFA0000D9
:100D9C00000000200149002048707047000000202E
:100DAC0005498A8C824205D1002081F822004FF639
:100DBC00FF70888470470000740E00200A4A10B13E
:100DCC00012807D00EE0507860B1D2F8020008601C
:100DDC00D08804E0107828B19068086090898880E9
:100DEC00012070470020704776010020084A01233B
:100DFC0038B1012804D113700868906088889081FC
:100E0C00704753700868C2F802008888D080704719
:100E1C0076010020064910B1012802D005E048787F
:100E2C0000E0087808B101207047002070470000EE
:100E3C0076010020014908777047000082050020E8
:100E4C00004870472410002004494A78824203D994
:100E5C00084490F842017047002070479A0E002019
:100E6C0004494A78824203D901EB00108230704762
:100E7C00002070479A0E0020054A01EB410102EB5D
:100E8C0041010268C1F80A218088A1F80E0170475F
:100E9C009A0E00202DE9F04107460024104D19E070
:100EAC002046FFF7DDFF030012D0281990F842010D
:100EBC0070B904EB440005EB400606F585763A461E
:100ECC003146184608F045F830462146FFF7D4FF66
:100EDC00641CE4B26878A042E2D8BDE8F08100005E
:100EEC009A0E002004494A78824203D901EB001083
:100EFC00801C7047002070479A0E002008494A78E1
:100F0C00824203D90A1892F842210AB10020704794
:100F1C0000EB400001EB400000F5857070470000CD
:100F2C009A0E002010B54FF4C5720021054809F047
:100F3C007BF905480021017041704FF461714180CB
:100F4C0010BD00009A0E00206C0100200B4B10B558
:100F5C005C78844210D9184490F80201C0EBC000B0
:100F6C00184490F852310B70D0F853111160B0F84E
:100F7C0057019080012010BD002010BD9A0E00205A
:100F8C0001484088704700006C01002070B50124B6
:100F9C001646254600F056F8082819D000F03EF801
:100FAC000346082814D006B133701846FFF79AFF91
:100FBC0070B10A484178994203D9C11891F84A5145
:100FCC0000E00025184490F83A01012803D00024D1
:100FDC0044EA050070BD0124FAE700009A0E0020D7
:100FEC0001494870704700006C0100200246094816
:100FFC0010B500780B4658B10748417841B10BB198
:10100C00801C01E00448823002F02EFA012010BD51
:10101C00002010BD6C0100209A0E0020084910B56C
:10102C00034600204A7806E00C1894F802419C42D2
:10103C0004D0401CC0B28242F6D8082010BD00007B
:10104C009A0E0020F0B51A4C0346002025782BE0B0
:10105C00C0EBC00222440F7892F853C192F852614F
:10106C0087EA0C075E403E444F7892F854C187EAF9
:10107C000C073E448F7892F855C187EA0C073E4422
:10108C00CF7892F856C187EA0C073E440F7992F854
:10109C0057C192F8582187EA0C073E444F795740C4
:1010AC00F74204D0401CC0B28542D1D80820F0BD14
:1010BC009A0E0020024991F9001008F044B8000083
:1010CC008401002008B57F208DF80000684602F0EE
:1010DC00AFFD40B105484078404241B29DF9000057
:1010EC0008F031F808BD9DF9000008BD840100200E
:1010FC00014A107051707047840100202DE9F84F9F
:10110C00DFF8A491694F83464FF0010A00267868F6
:10111C003546007A8DF80000009800909DF800107C
:10112C00102906D199F8131019B1B9F81400002838
:10113C0077D08DF80060684600F0C2F89DF800107A
:10114C000029F8D100286CD00446007A8DF80000F4
:10115C00009800909DF8008004F108000521009093
:10116C0001704046B8F1060F30D007DC02280FD0D2
:10117C00032819D0B8F1040F07D11FE0082835D087
:10118C000F2852D0B8F1100F59D040F24A2164E028
:10119C00626832B1594620469047042060F3070537
:1011AC005EE040F2C31158E0626822B15946204615
:1011BC009047054654E04FF4E6714EE0616811B17A
:1011CC00204688474CE04FF4EB7146E0626832B140
:1011DC0059462046904701F0D1FA18B11FE040F271
:1011EC0011213AE000F0C4FAA0B318E0014660689F
:1011FC005D4618B10488082911D101E0E5212CE0E5
:10120C002046FFF75DFC70B16E700F222A70EC80E7
:10121C00A5F808A0314685F804A007F046FD042087
:10122C003E61BDE8F88FC52117E08BF801601A21EB
:10123C008BF80010D4F80910CBF80410ADE71C485B
:10124C00026822B1606830B100885946904702208C
:10125C003E61E6E704E04FF410711020FFF794F8BC
:10126C00C5F30720012810D0EFF3108072B6217A55
:10127C008DF80010009900919DF80010052908D0F8
:10128C0039B166F3070538B107E0009841460170A3
:10129C0003E026723E61F6E762B615F0FF0F3FF4ED
:1012AC0036AFE8B2BDE70000B40D0020E00D002021
:1012BC00800000200149087000F064B8860100200D
:1012CC0038B503461749002018700869012440B14D
:1012DC00027A8DF80020009A00929DF80050002DA3
:1012EC0011D14868027A8DF80020009A00929DF87E
:1012FC000050012D06D0EFF3108272B605684D60D8
:10130C0012B102E0002038BD62B6027A8DF80020DE
:10131C00009A00929DF800500DB1086138BD1C7008
:10132C0038BD0000E00D002038B5D0B1416000F1AF
:10133C0008010A70EFF3108372B6104C0460211F81
:10134C004A684AB1127A8DF80020009A00929DF8F2
:10135C000050012D00D10C600A68106008602BB1A0
:10136C0005E040F275211020FFF70EF862B6044834
:10137C000078BDE8384006F08DBD0000E40D00207B
:10138C008601002010B514220021084808F04CFFFB
:10139C00064812220021143808F046FF03480121A8
:1013AC000173011D4160016010BD0000E00D0020C3
:1013BC0010B5044807F046FF0248BDE8104008305D
:1013CC0007F040BF84000020F8B507F04FFF04463B
:1013DC000D466A4600F062F808B10120F8BD0F48CE
:1013EC00037841788B4201D10020F8BD1A46416840
:1013FC0008E000BF01EBC206521E56E9027CC6E9AA
:10140C00007CD2B29DF80060B242F3D8F2B201EB8C
:10141C00C2015B1CC1E900450370DEE794000020AB
:10142C0010B5420703D063214820FEF7ADFF20B171
:10143C00034A5170506000201070C80010BD0000AD
:10144C009400002038B507F011FF6A4600F026F82A
:10145C00002814D00A4A1078401EC1B211709DF8B1
:10146C000000526808E000BF02EBC003401CD3E947
:10147C000245C3E90045C0B28842F5D3012038BD0E
:10148C00940000200149002008707047940000204F
:10149C00014840787047000094000020F0B5204DC2
:1014AC00002313702B7823B300245B1EDBB2D5F81A
:1014BC0004C00BE0E5186D080CEBC506D6E9007608
:1014CC003F1A8E4101D22C4600E02B461D1B012DEC
:1014DC00F0DC0CEBC406D6E9005680EA050781EA7D
:1014EC00060E57EA0E0705D0451B71EB060503D215
:1014FC00147010E0147011E00CEBC305D5E9004535
:10150C0080EA040681EA05073E4306D0001BA94188
:10151C0000D35B1C13700020F0BD13700120F0BDD4
:10152C009400002001484068A03070479C000020C7
:10153C0010B5214C606890F8480007F0C7FE616850
:10154C0081F849004A31FFF739FC606890F848008F
:10155C0007F0C3FE616881F87D0091F849004A31BB
:10156C0007F0A0FE30B9616891F849004A3107F0E4
:10157C00A2FE08B1012100E00021606880F85C1037
:10158C0019B990F87D00002814D0FFF7F9FC0B492D
:10159C00A0FB01236068903007F0FDFE606890F8B6
:1015AC007D0010B10020FFF775FCBDE81040002055
:1015BC0000F0C0BC10BD00009C00002040420F0099
:1015CC00044A0328526800D1516582F85800002063
:1015DC00704700009C0000200A484168886E70B17A
:1015EC0001F16D00FF22027000228A66027091F8F0
:1015FC006C100120884004490860002070470C20C2
:10160C00704700009C00002008F5014002460C4881
:10161C0010B58260C0680C4668B100F069FE07F036
:10162C00A0FF204600F030F8002807D040F6BB1190
:10163C003220FEF7A9FE40F6B511F9E710BD000007
:10164C009C00002002490148C8607047B02400008B
:10165C009C00002070B50546FFF74AFA0446FFF7D8
:10166C004DFA214607F095FE010006D00548C068EA
:10167C0002682846BDE87040104740F6B121322080
:10168C00FEF782FE9C00002070B5194D0446686878
:10169C0090F87010012904D090F8700008B10C205B
:1016AC0070BDFFF74FFA07F05CFF00F0B9F8462267
:1016BC000021686808F0B8FD69680022012081F8F3
:1016CC005D2081F8510081F8582081F87A2081F84A
:1016DC005E4081F89820072081F8500001F16D00E0
:1016EC00FF23037081F86C208A660270002070BDA5
:1016FC009C000020054810B5406890F8480007F0A1
:10170C00E5FDBDE81040FFF785BB00009C00002004
:10171C0040B1022806D000220349496801F8512F34
:10172C00087270470122F7E79C00002010B50346B1
:10173C000078C00705D058780021FFF741FF00283A
:10174C000CD1074C9878616881F84800D878FFF77D
:10175C00DFFF6168187981F85000002010BD00008F
:10176C009C0000200148C068406800479C00002095
:10177C00074808B5406890F840008DF800000098C4
:10178C0000909DF80000002800D0012008BD00004A
:10179C009C00002010B500F003F90C4B40B15868C8
:1017AC00012180F84210416D0988A0F8441004E032
:1017BC005968002001F8420F488058680222BDE8A1
:1017CC0010400349383007F029BD00009C00002070
:1017DC00952200000248406890F8580070470000BD
:1017EC009C00002010B500F0DBF80C4928B14868CB
:1017FC0090F85A0001280ED00CE0496891F8580076
:10180C00012801D0022805D191F85900012803D0F4
:10181C00032801D0002010BD012010BD9C00002029
:10182C0010B5074C606890F87C00002807D001F0D8
:10183C0013FF01F031FE6168002081F87C0010BDBF
:10184C009C0000202DE9F041104D06460F466868BB
:10185C000F4990F87A000C5C204602F02FFA686869
:10186C00012180F88940252002F0FEF9384602F06B
:10187C0039F94FF00101084626B101F099FF18B96A
:10188C00BDE8F08101F05AFF0120F9E79C0000202F
:10189C007EA30000F8B500260F4605468DF80060C3
:1018AC006B4600F095F80100104803D0406880F8B2
:1018BC008160F8BD40689DF80010072F90F85140EA
:1018CC0001D3344602E0220000D10C4680F881405E
:1018DC0069680029EDD0697C80F88A1069680A680B
:1018EC0040F8832F89888180F8BD00009C0000207F
:1018FC0010B5154942684968137891F88340A342A2
:10190C001FD1537891F88440A3421AD1937891F85F
:10191C008540A34215D1D37891F88640A34210D1CB
:10192C00137991F88740A3420BD1527991F8883002
:10193C009A4206D1407C91F88A10884201D101204C
:10194C0010BD002010BD00009C00002010B50178D7
:10195C008CB001F00F04224601A900F031FE01F019
:10196C009DFE00F027FB042C14D101A8FFF7C0FF4B
:10197C0080B10BA800F026FB9DF92C0000900748C5
:10198C00406890F8893090F8982090F8791001A868
:10199C0007F09CFD0CB0052010BD00009C00002041
:1019AC000448406890F85800032801D00020704784
:1019BC00012070479C000020827C836803484168AA
:1019CC0091F849004A3107F094BA00009C000020BD
:1019DC00FEB541681E46044601B3607C07F06BFC03
:1019EC00194D696891F87C1041B138B107F017FBBB
:1019FC00696801F8780F48700120C871686890F820
:101A0C007800FF280CD06A4602A9FFF79FFAA8B10C
:101A1C0069469DF8080007F022FC30700020FEBDDE
:101A2C00607C616807F01BFC30706A68607C6168E0
:101A3C007832FFF7ABFA80F00100FEBD40F634516E
:101A4C003220FEF7A1FC00009C0000202DE9F041A3
:101A5C004C4C06460021D4E9015070350180032E10
:101A6C0002D0052E04D051E0032107F0A0FB4DE07D
:101A7C00052107F09CFBD4E90107416D4969C7F8C2
:101A8C000F10416DC969F9740A0A3A75090C797518
:101A9C00406D0169808C07F04CFBB875D4E90107E7
:101AAC00406D0169006A07F035FBF875000A38765D
:101ABC00D4E90107406D006907F0E9FA7876000A6D
:101ACC00B876D4E90107416D098B07F81B1F090A89
:101ADC007970416D498BB970090AF970416D51F8F3
:101AEC00AE2F7A6009793972406D90F8B910787A16
:101AFC0001F01F0100F0E0000843787201F0ACFC2B
:101B0C00797A01F01F0141EA4011797205F1130154
:101B1C00A06807F067FBA97EA06807F069FB606806
:101B2C0000F14A0590F8497090F87D0088B1FFF7F4
:101B3C0037FF30B1606890F8511011B190F87B000C
:101B4C0002E0606890F87800FFF7D8F908B1012737
:101B5C0005462946A06807F052FB3946A06807F0F5
:101B6C0054FBA06801F0BEFF052E08D160682A68FE
:101B7C00416DC1F80A20AA88CA81406D4772BDE840
:101B8C00F08100009C0000202DE9FF5F654F0446AA
:101B9C00786890F8818090F87D0080B1002600254F
:101BAC00A07CA16807F087FB8246FFF7F9FE40B1E5
:101BBC00786890F8511021B190F87B0004E0012670
:101BCC00EDE7786890F878008346FFF749F95FEA0B
:101BDC0000090CD05846FFF737F900B10126BAF1CD
:101BEC00000F04D04846A16807F0E8F9054678686C
:101BFC00B94690F849700DB147F00207FFF7D0FED7
:101C0C00A0B36068D9F80410027891F860309A4259
:101C1C001FD1427891F861309A421AD1827891F8AA
:101C2C0062309A4215D1C27891F863309A4210D141
:101C3C00027991F864309A420BD1407991F8652081
:101C4C00904206D1607C91F85F10884201D101204E
:101C5C0000E00020344F824697F87800082806D020
:101C6C0097F87B10884202D1012001E021E000208E
:101C7C00814625B92EB12046FFF79EFE08B1012002
:101C8C0000E00020B8F1000F09D097F85A10012994
:101C9C0003D021B95AEA090101D0012100E0002149
:101CAC00084203D00C2004B0BDE8F09F01F0F6FC14
:101CBC0036E001F0F3FCB8F1000F31D02046FFF70D
:101CCC007BFE00B975B103A800F07CF9D9F80420AB
:101CDC009DF90C3092F8790092F889108DE80B0080
:101CEC003B4618E0D9F804004D4690F859000328FB
:101CFC0001D0022814D1BAF1000F11D003A800F0C2
:101D0C0061F96A689DF90C3092F8790092F88910A3
:101D1C008DE80B00FE23012120464A3207F05EFBC2
:101D2C000520C0E79C000020A80500207FB53F4C93
:101D3C000546606890F8811000296CD090F8580026
:101D4C0002282CD0012843D0FFF72AFE002867D0A8
:101D5C006A686168107891F8603098424CD150787C
:101D6C0091F86130984247D1907891F8623098425E
:101D7C0042D1D07891F8633098423DD1107991F8E6
:101D8C006430984238D1507991F86520904233D123
:101D9C00687C91F85F2090422ED101202DE003A8A1
:101DAC0000F010F962689DF90C3092F8790092F805
:101DBC0089108DE80B00FF23002128464A3207F0DA
:101DCC000DFB6168012081F898000B2004B070BDF8
:101DDC0003A800F0F7F862689DF90C3092F87900CE
:101DEC0092F889108DE80B00FF23002128464A3217
:101DFC0007F0F4FA0520E9E7002091F85A100129C0
:101E0C000CD058B90A4991F87B00082803D091F8F6
:101E1C007810814202D001F041FCEBE70C20D5E7B1
:101E2C0040F6E5613220FEF7AFFA00009C0000207E
:101E3C00A80500207FB51E4C0546606890F88110FF
:101E4C0029B190F85800022804D001281BD001F0C9
:101E5C0025FC2AE003A800F0B5F862689DF90C3067
:101E6C0092F8790092F889108DE80B00FF23062177
:101E7C0028464A3207F0B2FA62680B20002182F839
:101E8C00981004B070BD03A800F09CF862689DF92E
:101E9C000C3092F8790092F889108DE80B00FF2332
:101EAC00062128464A3207F099FA0520E9E7000096
:101EBC009C0000207FB589B3012934D00525022967
:101ECC0004D0062925D001F0E9FB1FE0064601F0FD
:101EDC00E5FB174C606890F88110B9B190F8580088
:101EEC00012801D0022811D103A800F06BF8626818
:101EFC009DF90C3092F8790092F889108DE80B005E
:101F0C00FF23022130464A3207F068FA04B0284613
:101F1C0070BD04B0BDE87040FFF78CBF04B0BDE8E5
:101F2C007040FFF703BF04B0BDE87040FFF72CBE54
:101F3C009C00002070B5114C0546616891F85D005D
:101F4C00002819D091F85C00002815D091F84900B0
:101F5C004A3107F0B0F940B1FEF772FF61682A46CA
:101F6C00BDE870404A3106F0F4BF60682946BDE810
:101F7C0070404A3006F0DCBF70BD00009C000020B1
:101F8C0002460B4882B0406890F86D108DF8001036
:101F9C00009900919DF80010002907D1816E00294D
:101FAC0004D090F86C0002B004F076BD02B070471B
:101FBC009C00002010B5FFF785F80149087010BD92
:101FCC009C000020074A10B592F900107F2903D01D
:101FDC0001707F20107010BD40F24D413220FEF791
:101FEC00D3F900009C0000202DE9F0410746FEF7D4
:101FFC007FFD0446FEF782FD214607F0CAF9050075
:10200C0012D02D4C606890F85800012804D002289A
:10201C0002D0FFF7C5FC50B16FF013063FB3284652
:10202C0007F09CF850B905E041F257513AE041F203
:10203C005D5137E0284607F0ADF8C0B1616828461D
:10204C0091F87020052A02D241F2DC412AE091F885
:10205C0070200B2A02D341F2DD4123E0E26891F8B3
:10206C007010526906EB81015158884716E0606880
:10207C0090F87010052902D241F24D5112E090F8FF
:10208C0070100B2902D341F24E510BE0E16890F82D
:10209C007000896906EB8000085880470F2804D32C
:1020AC0041F272513220FEF76FF9E168096951F87B
:1020BC002000BDE8F04100479C00002010B518B18D
:1020CC00BDE8104000F006B900291DD00F4841684A
:1020DC0091F870200B2A02D241F22D6105E091F8A3
:1020EC0070200F2A04D341F22E613220FEF74CF9F6
:1020FC00C06891F8701080686FF02B0202EB8101C0
:10210C004058BDE81040004710BD00009C00002066
:10211C0010B5FEF7EDFC0446FEF7F0FC214607F087
:10212C0038F950B101F0DEFC002001F0ADFB05499F
:10213C000620496881F8700010BD4FF4C66132204A
:10214C00FEF722F99C0000200F4910B5486890F862
:10215C007020052A02D241F2616105E090F87020EE
:10216C000B2A04D341F262613220FEF70DF9C968E3
:10217C0090F87000C9686FF0130202EB80000858E9
:10218C00BDE81040004700009C0000202DE9F04104
:10219C002C4C05460E46606890F8700020B1012862
:1021AC0002D00C20BDE8F08101F0F6FB01F054FAEE
:1021BC0001F072F9244801F05FFB244801F04EFD58
:1021CC00234801F041FD304601F08CFC687910B1D8
:1021DC000120FFF7D5FE2879032801D018B118E0AB
:1021EC0040F652212AE061680020032591F8503016
:1021FC0091F87A20521CB2FBF5F705FB172281F8F7
:10220C007A2023FA02F2D20703D1401CC0B2032871
:10221C00EED3606890F95E0001F042FC314601207B
:10222C00FFF710FB0028BDD000F0D8F80948006873
:10223C00032801D00020B5E74FF426613220FEF7C9
:10224C00A3F800009C000020CC240000555555003C
:10225C00D6BE898E5015004010B50020FFF790FEB9
:10226C000848406890F8700028B1012803D0022873
:10227C0004D00C2010BD00F02DF801E000F040F867
:10228C00002010BD9C00002010B5002048701920C3
:10229C0008700F484068D0F842004860087901285F
:1022AC0014D1CC8800212046FEF718FB00280DD055
:1022BC00204606F01CFE00212046FEF777FB002886
:1022CC0004D040F215413220FEF75EF810BD00003C
:1022DC009C00002010B5FFF7A3FA044901204968BF
:1022EC0081F87000BDE8104000F04EBA9C00002050
:1022FC0002490020496881F8700070479C0000205A
:10230C0070B5FEF7F5FB0446FEF7F8FB214607F027
:10231C0040F8040020D007F049F8002000F088F9BC
:10232C00F8B1204D686890F87000022803D021465F
:10233C000020FFF787FAE01C06F06EFE696881F852
:10234C007C0028B1402401F0C7F8204601F092F936
:10235C00FFF726FB70B908E040F21E513220FEF761
:10236C0013F8BDE87040FFF7B5BF686890F85800E7
:10237C00022804D100210122084601F03BFC6868C8
:10238C00FF2180F8781080F87910002180F88010F7
:10239C0080F87F1080F8811080F89810052180F863
:1023AC00701070BD9C00002010B5032000F040F9A7
:1023BC0068B10320FFF74AFB01221146002001F00F
:1023CC0019FC05490B20496881F8700010BDBDE867
:1023DC001040FFF77FBF00009C00002070B5194D26
:1023EC0000206C6884F8980094F85C0010B994F89C
:1023FC007D0008B3F4E924106FF00042504070EAFD
:10240C00010119D007F004FDD4E90023801A994189
:10241C0012D3FEF7B5FD0C49A0FB01236868903080
:10242C0006F0B9FF686890F87D0010B10120FEF746
:10243C0031FD0120FFF77EFD6968022081F87000F4
:10244C0070BD00009C00002040420F00FD220000E7
:10245C00E12200005F9300005F9300005F93000097
:10246C000D2300005F9300005F9300005F9300005A
:10247C005F9300005F930000B52300005F930000A2
:10248C005F9300005F9300001D2100006993000022
:10249C00779300000F93000019930000279300001E
:1024AC0059190000992100006522000094240000B5
:1024BC009824000058240000A8240000A024000048
:1024CC0055210000F51F0000C92000008993000071
:1024DC0070B504460078052801D0482158E0A07B4F
:1024EC00C00601D4492153E01C22211D2F4807F0BE
:1024FC0021FE2E48227B04F120011C3007F01AFE2D
:10250C002A484FF00102817A490702D5C17CFE2985
:10251C000CD004232370016861604168A1600189BB
:10252C00A181817A0D0719D5A3732DE01321217098
:10253C000178217162714178A171D0F80210C4F850
:10254C000710C188A4F80B10FE2161734169C4F80F
:10255C000E10018B6182407A207570BDCB0703D0C1
:10256C008B0701D500210EE04B0701D5A2730BE0C0
:10257C00CA0710D18A0701D5022104E0CA070AD183
:10258C00890708D40321A173027A1F2A05D98D214A
:10259C003320FDF7F9FE8A21FAE704F10F00BDE8BC
:1025AC00704002491C3107F0C5BD000034100020FA
:1025BC00002101720622014906F030BE739500001D
:1025CC002DE9F04116460C46054606F0DFFD607419
:1025DC00284606F0D8FDA074EA1C144B901D00216F
:1025EC00072E1FD2DFE806F0040B111E131E040089
:1025FC001B780DE0E060BDE8F081E160FBE75B7803
:10260C006370C4E901202174F7E79B7800E0DB7864
:10261C006370C4E901216A78921F12F0FF022274E0
:10262C00EBD0E7E761706160A160ECE781A300008B
:10263C0070B5054607F0ECFB164C2169461A55B1EE
:10264C00032D0DD0042D0ED0062D1DD040F2D63109
:10265C002120FDF799FE012007F023F8983004E0C3
:10266C004FF4577001E04FF4FC70216B3518F939B9
:10267C008D4207D3002600F01BFA40B1206BF938CD
:10268C00854203D2012602E0012070BD00263046AF
:10269C0070BD00005006002070B586B0064611B122
:1026AC00112006B070BD174C207808B10C20F8E74B
:1026BC00FEF738FF0546002060700420207000F003
:1026CC003DFAA0640021104804F014F8287020286A
:1026DC000DD0334600220121684600F089FA48B13A
:1026EC002878694606F0F7FF38B10020D9E740F2A8
:1026FC00623104E04FF4597101E040F26531212060
:10270C00FDF742FE50060020852800002DE9F0411F
:10271C000027FEF707FF184C05462078042805D043
:10272C002078052802D00C20BDE8F08101206070D3
:10273C00207B60B1EFF3108672B6207B28B1607BF2
:10274C0018B106F0D4FD00F087F826B104E0287823
:10275C0003F04EFD00E062B6287803F0B3FE00F003
:10276C009FFB0020607094F8240000B10C2700F04F
:10277C00C3FB3846D8E7000050060020014800781B
:10278C00704700005006002010B5104C86B0207B1E
:10279C00B0B16078A0B900231A461946684600F01B
:1027AC0027FA58B1FEF7BEFE0078694606F093FF93
:1027BC0030B940F2BC712120FDF7E6FD0120A0707C
:1027CC0006B0BDE8104000F047B8000050060020ED
:1027DC0008B5602200210C4807F026FDFEF7A2FE8A
:1027EC002021017000F012F820B140F23521212097
:1027FC00FDF7CAFD42F2107000900122694680106C
:10280C0000F0DCF808BD000050060020034810B5AD
:10281C00007808B1FFF77AFF002010BD50060020A9
:10282C000C4908B5097821B14FF447712120FDF707
:10283C00ABFD0023009301781A46C90703D0D0E9F9
:10284C000130012200906946184600F0B7F80020CC
:10285C0008BD00005006002010B5064C207B002857
:10286C0006D001F065F803F069FF00202073607357
:10287C0010BD000050060020F0B587B00D46FEF7E5
:10288C0051FE01273F4C092D78D2DFE805F00539C0
:10289C004F4F4A77646D72002773617800292DD1F0
:1028AC00007802F049FF05460E46C4E9040100F029
:1028BC003FFB18B100208DF8040001E08DF8047086
:1028CC0000F050F933462A4606F007FF6168B0FB6A
:1028DC00F1F201FB120050B15FF000008DF8050021
:1028EC006846FEF7B7FE20B14FF4E77143E00120D4
:1028FC00F4E7206BE838A06303F0FCFF07B0F0BDF1
:10290C00607830B106F0F3FC07B0BDE8F040FFF79B
:10291C00A3BF6773FEF726FF0028EFD040F2E1114A
:10292C0029E007B0BDE8F04001F0CEB905780023EE
:10293C0001221946684600F05BF940B16946284609
:10294C0006F0C9FE0028D9D140F2D77113E0A77068
:10295C0000F01AF8D2E700F0ABF80028CED107B09F
:10296C00BDE8F04006F0C1BC07B0BDE8F04000F097
:10297C000BB840F213212120FDF706FD40F2172180
:10298C00F9E700005006002010B50B4C207838B148
:10299C0000F086FAA07850B194F8240028B106E033
:1029AC0040F27B112120FDF7EFFCFEF7F3FEBDE8B2
:1029BC00104000F0A1BA0000500600202DE9F041B3
:1029CC00114D16460F460024686006F05FFEDFF8D6
:1029DC003CC000211CF80120324207D057F82430AB
:1029EC0005EB84021B1A641CE4B29360491C11F0C1
:1029FC00FF01EFD016F00E0F04D040F2037121202E
:102A0C00FDF7C2FCBDE8F0815006002085A3000054
:102A1C002DE9F04786B092460746894600F094FAB5
:102A2C00224D4FF000086A68861841EB08010C46ED
:102A3C000B4632463846494606F04FFE074606F02E
:102A4C0043FE874213DAD5E9060100F07DFA3246DF
:102A5C00234606F042FE6968B0FBF1F1CAF800109B
:102A6C006868801948EB040106B0BDE8F0878DF862
:102A7C000080686B019006F0F2FDADF808000120B3
:102A8C008DF80B00D5E9060100F05EFACDE90401E2
:102A9C0000F0ECF98DF80A006846696806F0FDFA5A
:102AAC00CAF80000DDE90401DEE700005006002052
:102ABC002DE9F04107F0ACF91F4C06460D46D4E960
:102ACC00040100F0D3F9074602F0ECFD024667283A
:102ADC0023D3501C24D0216B636B8818834200D8FD
:102AEC005A1A6FF03C00301845F1FF3100F042FAF1
:102AFC00216B0844216B451A41F28830854200D97C
:102B0C00054607F085F9801B00F1A100854204D32E
:102B1C003946284602F0D6FC20B10020BDE8F081F1
:102B2C00606BE7E7206B28442063A06B2844A0630C
:102B3C0003F0E0FE0120F1E75006002010B5002460
:102B4C0006F0A4FD064A002102EB810304449B68B5
:102B5C00491C1C4411F0FF01F6D0204610BD0000AA
:102B6C00500600200149D1E91001704750060020A1
:102B7C002DE9F04106461D4888461546D0E90A1055
:102B8C006FF000420127504086B070EA010121D05D
:102B9C0000248DF80040019506F061FDADF80800A9
:102BAC008DF80B7006F090FD821944EB0800CDE90E
:102BBC00042002208DF80A00684603F05FF968B122
:102BCC00DDE904104A1909496041D1E90A319A1A20
:102BDC00814108D4012006B0BDE8F08140F23551A6
:102BEC002120FDF7D1FB0020F5E700005006002066
:102BFC002DE9FF4F87B01446064607F009F9994DA9
:102C0C0080468946A8684FF0000A0290FFF796FFAD
:102C1C006968884201D1012000E000200490204026
:102C2C000390089800287FD04FF4FA6218EB020B3F
:102C3C0049F1000400F08AFA00908A480078894F24
:102C4C004037052835D18748006AD0F8300200F0AB
:102C5C0063FA00990546884209D082482946006AE1
:102C6C0000F50A7000F00CFA0020B8610CE07D4908
:102C7C00086A00F50A70B861086A8A6CD0F83002EC
:102C8C00824200D3104688647648006A58B16DB110
:102C9C00D5E90113D5F800C01CEB030341EB0A0185
:102CAC00C0E98A3105E040F293711AE00021C0E9D5
:102CBC008A113846009900F0E3F96A48009A456891
:102CCC0092B1D2E901131768CDE900B4F81841EBC1
:102CDC000A012A4606F029FD0146A84205D940F210
:102CEC00F9312120FDF750FB00211BEB01055D495B
:102CFC00504644414A68AB1A64EB0A02C1E91032EF
:102D0C000A9A283152B142F210735A43AA1844EB72
:102D1C000A00C1E90020012051E005E04FF0FF302E
:102D2C004208C1E90002F6E70398D8B1012006F089
:102D3C00B8FC0446012000F0E5FE4AF2A131014442
:102D4C004FF47A70B1FBF0F0221840464946F93244
:102D5C00FFF70EFF08B90020029045464C46CDF80F
:102D6C0014A02DE03CB105AA40464946FFF750FEA1
:102D7C0005460C4624E04046494600F0E5F8DFF8ED
:102D8C00E4B002460846DBF808100291DBF8043088
:102D9C0057469D184AEB0004DBE9040100F0C8F823
:102DAC00DBF8041048430090FFF7DCFE009A801813
:102DBC007941CBE910012146284600F0B9F805907D
:102DCC00012006F06EFC0746012000F09BFE4AF243
:102DDC00A13101444FF47A70B1FBF0F0074428465E
:102DEC002146F937029A00F0C5F81E4901EB8A0218
:102DFC009268824200D810464863089A0AB1C1E929
:102E0C000454C1E906548B46049911B1CBF83070C7
:102E1C0001E0CBF830000120F07206F020FC30818C
:102E2C002846214600F022F8B072DBF830007060C2
:102E3C00039848B1012030700B4A4046494600F0D7
:102E4C0099F8C01B306103E086F800A0C6E9045471
:102E5C00DBF83400B84203D301200BB0BDE8F08F8F
:102E6C000020FAE7500600200040420F70B50446DF
:102E7C000A480D46017804290DD1406800EB80000A
:102E8C004600FFF76FFE22462B4606F026FCB042AA
:102E9C0001D2022070BD012070BD00005006002040
:102EAC0070B5144D95F8240005F1400400282878DD
:102EBC000FD0052804D040F257212120FDF764FAE9
:102ECC00204606F0E9FB78B12046BDE8704000F0E2
:102EDC00B5B8052808D1204606F0DEFB20B9286AD3
:102EEC0000F50A7000F0FAF82046BDE8704000F0DA
:102EFC00F5B800005006002010B5FEF76DFB0B492D
:102F0C000020887081F8240008620870FEF70AFB24
:102F1C000446007803F0B4FA10B12020207010BDE4
:102F2C0040F292312120FDF72FFA000050060020CC
:102F3C0010B50446FFF716FE0249201A4968B0FB8B
:102F4C00F1F010BD5006002070B504460D46FFF799
:102F5C0009FE22462B4606F0C0FB05494C68B0FB27
:102F6C00F4F04443FFF7FEFD001941F1000170BD80
:102F7C00500600200A4B10B5D3E90A43201A63EB24
:102F8C00010300242146241A994106DA0021141A5F
:102F9C0071EB030400DA104610BD002010BD0000D8
:102FAC0050060020024900200860486000F008B874
:102FBC00AC0000200149487070470000AC000020B4
:102FCC002DE9FC411C4E0120307000244FF6FF7798
:102FDC0016E00021FDF782FC050014D095F849029B
:102FEC0003F070FA85F8484295F8490203F048FA64
:102FFC0060B1202085F8490205F50A7000F06EF8E2
:10300C000094019410E04FF4E87101E040F2BF111C
:10301C003520FDF7B9F9009830B190F8481219B184
:10302C000088B842D5D104E06846FDF79DFC002825
:10303C00F1D03470BDE8FC81AC00002010B5816982
:10304C0019B182688B689A4203D2C6213720FDF7EA
:10305C009BF942694A6103690B610AB1116101E094
:10306C00064A11600A6932B15161D0E9022010445C
:10307C008A68801A00E00020C86010BDB4000020EF
:10308C0010B50022416189B10B690861036103B17C
:10309C0058614169C26000290FD0CB6863B1846864
:1030AC00A34207D22B213720FDF76EF903490261A9
:1030BC000860EEE71B1BC360CA6010BDB4000020A3
:1030CC00416929B9016919B903490968814201D1DA
:1030DC000120704700207047B4000020416949B1BD
:1030EC00D0E902231A44CB681A44CA60D0E904120E
:1030FC00116102E0074A016911600269002112B1F5
:10310C004369536102E0426902B1D16001614161DE
:10311C0070470000B400002010B504460A49002096
:10312C0002460968431E08E0CA68A24203D39A42C9
:10313C0001D2134608460A4609690029F4D1002831
:10314C0000D1104610BD0000B400002004480168F6
:10315C00002001E0084609690029FBD170470000F6
:10316C00B40000200148002101607047B400002029
:10317C00034900200968002900D00C20704700008A
:10318C00B400002003494A8802800978817000202D
:10319C0070470000B40D0020017871B1417861B125
:1031AC0041881B2909D381881B2906D3044902684D
:1031BC000A608088888000207047122070470000C9
:1031CC00B40D0020006840F2E241884203D3034969
:1031DC00886000207047122070470000B40D00205A
:1031EC0010B586B0044606F06DFC002803D106F03D
:1031FC000DFD10B10C2006B010BD022104F1100021
:10320C0000F082F8A0788DF80800A0788DF8000006
:10321C0060788DF8030020788DF80200207E8DF800
:10322C000400A078C0070BD0E078012811D090B131
:10323C005FF000008DF80100A068039020690490F5
:10324C0002A8FFF7EDFA0028D5D16846FEF76EFA12
:10325C00D1E70220EEE70120ECE70000014890F9ED
:10326C0000007047B8000020034AD2E90012016048
:10327C0042600020704700006833000010B50E4813
:10328C0000210E4BC17481821B221A804FF4A4744E
:10329C005C809A80DC808173C173032303700223EA
:1032AC0043704280828040F6A66282608174017312
:1032BC000248801F017010BDB40D0020C600002014
:1032CC000449A0F6C410884201D3002070470120A5
:1032DC0070470000CCF370020449A0F6C410884279
:1032EC0001D3002070470120704700003D369C0040
:1032FC000449A0F6C410884201D300207047012075
:10330C00704700003D369C0030B50022074D09E0A7
:10331C0050F822402B469C4200D8234640F82230DD
:10332C00521CD2B28A42F3D330BD00000024F40008
:10333C00094A90420BD8012902D0042903D008E095
:10334C0040F2537101E040F6C411884201D20020D2
:10335C0070470120704700008FFD70020D77100D33
:10336C0059007710000000000000000070B50D46F9
:10337C00FDF7A0FF054C6560A06806F072FC06F036
:10338C0020FBFEF715F80120207070BDD000002046
:10339C000148007870470000D000002010B5064CA2
:1033AC00E06806F05EFC206906F05BFC06F02CFB86
:1033BC000020207010BD0000D000002010B5054981
:1033CC00054806F041FC0448BDE810400349001DC7
:1033DC0006F03ABCE4000020D8000020EC000020ED
:1033EC0010B5FFF7BFFEFFF7F3F9FFF7DBFDFFF7B3
:1033FC0035FF0146BDE810400148FEF707B9000053
:10340C006F100020064801880079020642EA11205C
:10341C0000F001000018C0B240F00100704700003D
:10342C002000002010B504F075FB0022084B11465B
:10343C0033F82140844203D303EB8100827803E00C
:10344C00491CC9B20C29F3D30248027010BD00000C
:10345C00BC9C0000870100200248007800F00700A7
:10346C00704700008701002070B5054616460C46D3
:10347C00022000F0BDF806490120F61E0870054830
:10348C000660044808380560001F046070BD000029
:10349C008801002010F5004010B50C4C207880B14C
:1034AC000B494FF40000086000F06AF8002120B1CD
:1034BC00012060700748006801E061701020A07066
:1034CC002170BDE81040002000F092B88801002067
:1034DC0008F5014000F4004010B5022000F088F817
:1034EC0004490120087000F059F803494FF400001A
:1034FC00086010BD8801002004F50140034800213C
:10350C00017041701021817070470000880100200B
:10351C00074810B5017841B100F032F818B10548F0
:10352C000068C0B210BD102010BD807810BD000026
:10353C008801002000F40040084810B5017859B10A
:10354C000748D0F8000128B100F00CF8002800D092
:10355C00012010BD022010BD407810BD8801002054
:10356C0000F000400548D0F8041111B1D0F8080162
:10357C0008B10020704701207047000000F00040A7
:10358C00054810B5D0F8000120B1FFF7EBFF08B1EA
:10359C00012010BD002010BD00F0004004480021A7
:1035AC00C0F80011C0F80411C0F8081170470000F1
:1035BC0000F0004070B5054D0024287810B100F0E3
:1035CC000FF82C706C70AC7070BD00008B0100207B
:1035DC000248002101704170817070478B010020FE
:1035EC0002490148086070470000020208F50140DA
:1035FC0010B5044600F020F8002C0ED00B4A0B48F6
:10360C000B491432012C05D0022C07D082213D200D
:10361C00FCF7BAFE02230360116010BD03230360A4
:10362C00116004494FF40000086010BD00F5004023
:10363C007312002004F50140054810B5002101600B
:10364C000160FFF7B7FF03494FF40000086010BD9D
:10365C0000F5004008F501400548D0F8001221F0B3
:10366C004001C0F800120021C0F86015704700003E
:10367C00001000400449C1F86005D1F8000240F088
:10368C004000C1F800027047001000400249085C7D
:10369C0000F51660704700008E420000F8B5244C0F
:1036AC00D4F8040310F0100F01D0012700E000271C
:1036BC001020C4F808030220C4F800021D4800259D
:1036CC001D4980F828504FF460200860D4F850054C
:1036DC004FF4887610F0FF0F19D0FF208DF8000002
:1036EC00C4F810510120206105E000BF9DF80000D6
:1036FC00401E8DF800009DF8000028B13146204690
:10370C0006F035FB0028F1D09DF8000058B100F010
:10371C00CDFBC4F8105100F035FD002F02D0102065
:10372C00C4F80403F8BD40F694013E20FCF72CFECF
:10373C0000100040040E002008F501402DE9F04176
:10374C00184D074695F82800C2070FD0164CD4F830
:10375C00002242F00102C4F8002240F0020085F879
:10376C00280001263FB1012F0BD010E040F26F7101
:10377C003E20FCF709FE084600F05EFD6E722660E6
:10378C0005E0084600F03EFD0220687266600748BE
:10379C00C66406480C30D0F840153846BDE8F041F8
:1037AC0000F0C2BC040E002000100040008000405D
:1037BC002DE9F0472C4C06002C4D94F82800DFF82E
:1037CC00B08040F00200894684F828004FF00007D2
:1037DC0002D0012E20D036E0084600F02DFD01204D
:1037EC006072E079012805D1D5F8000240F008009C
:1037FC00C5F80002606A40F4801060624FF48010DB
:10380C00C8F800001B4931F819004FF47A7100F523
:10381C00FA70B0FBF1F716E0084600F0F3FC02205A
:10382C006072E079012805D1D5F8000240F004005F
:10383C00C5F80002606A40F4001060624FF400109A
:10384C00C8F80000292700F09DFB06F0D8FA20B13B
:10385C00FFF724FF0020BDE8F0870021304600F080
:10386C0063FC3846F7E70000040E0020001000400F
:10387C0004F501408842000010B51DC8014981E8DB
:10388C001D0010BDF40D002070B50F4C0346022036
:10389C00207394F82150962094F82010227D012D4D
:1038AC000ED000F027FD206108480021C0F844111B
:1038BC002169E06908440549091DC1F8400570BD3E
:1038CC0000F036FDEFE70000040E00200080004001
:1038DC002DE9F04134220021134806F0A5FC00F03C
:1038EC0051FC06F062FB114D104E00240F4F0835B1
:1038FC00103628B906F070FB10B906F077FB08B14A
:10390C00242206E006F0B2FB10B906F0A5FB40B18C
:10391C004022FF21384606F087FC2C603460BDE85D
:10392C00F0813822F5E70000040E0020000E004064
:10393C0010B500F0DBFBFFF7B1FE04F067FB30B114
:10394C00401C04D040F265513E20FCF71DFD0F4891
:10395C000F4A416A41F044611160002444620473CF
:10396C00C461846100F0C2FB0A48C0F84841C0F849
:10397C004441C0F84041C0F84C41012006F0E6F942
:10398C00BDE81040012006F0D4B90000040E002060
:10399C0008F501400080004070B5012006F0D6F912
:1039AC00374C0020C4F8FC0F0120C4F8FC0F06F0C3
:1039BC0033FB344D18B1286840F48060286006F061
:1039CC001FFB28B12868304920F0690008432860A3
:1039DC0006F032FB38B12B48001D016821F47F4101
:1039EC0041F4B0510160274928483C31086004F08B
:1039FC0047FB40B14FF08050D0F83003411C02D04F
:103A0C002049103108604FF01020006E411C04D08A
:103A1C001F490A6860F317420A6040F2031140F232
:103A2C005B60C4F83415C4F838050120C4F83005BF
:103A3C0000F042F840F20120C4F850060220C4F80D
:103A4C00000214494FF040600860134900200886BA
:103A5C001031C86181F82800012006F06AF91020A5
:103A6C00C4F804034FF0E0210220C1F800010B4818
:103A7C000068002802D0BDE87040004770BD00000F
:103A8C00001000403C170040960000802C0000897C
:103A9C008C15004004F50140F40D0020F4000020CA
:103AAC000149487570470000040E0020014951F887
:103ABC0020007047DC420000084910B50875084921
:103ACC00012806D0022806D040F66C513E20FCF7A7
:103ADC005BFC032000E00420086010BD040E0020F5
:103AEC00101500400549C1F80405054810F8281FB9
:103AFC0041F00101017000F00BBA00000010004011
:103B0C00040E0020014951F820007047E8420000E3
:103B1C002DE9F047304E314C8846070015464FF0E2
:103B2C00010906D0012F12D040F617013E20FCF7F8
:103B3C002BFC104600F080FB294884F8099030F8E3
:103B4C001510404600F026FB054630460CE01046AA
:103B5C0000F058FB0220607249F6BA71404600F042
:103B6C0019FB05461C48001D00F0D2FADFF87480E2
:103B7C00C8F84055DFF874A01B48CAF8100510208F
:103B8C00C6F80403606A4FF4002640F4002060621B
:103B9C001748066000F0F6F94146C8F84C901148F9
:103BAC000C30D0F84005A84210D30020C1F84005D5
:103BBC00CAF81405606A20F4002060620C48001DED
:103BCC000660FFF76BFD0020BDE8F08729463846FC
:103BDC0000F0AAFA0120F7E700100040040E0020C4
:103BEC0088420000008000404081004098F0014075
:103BFC0004F501400D4B10B5D8719A7251B10220E9
:103C0C001872012808D002280FD040F644213E201B
:103C1C00FCF7BAFB0120F3E7587A022805D100F033
:103C2C003BF9BDE8104000F049BA10BD040E00206D
:103C3C000449D1F8481501F07F0149420170012077
:103C4C0070470000001000400349020EC1F8242503
:103C5C000002C1F81C057047001000400149C1F872
:103C6C003C0570470010004010B50022012906D019
:103C7C00022902D040F2D22114E04FF080720B499D
:103C8C000A430B490A600B4908430949091D08609E
:103C9C000948D0F85005C0B2032801D00B2804D134
:103CAC0040F2EA213E20FCF76FFB10BD080110002A
:103CBC0014150040000003020010004001498875F3
:103CCC0070470000040E00202DE9F04751484FF0DA
:103CDC00010AC0F84CA04F480C30D0F8407506F0E3
:103CEC008CF84D4CC4E90B0700F0E0F84B49606AC6
:103CFC000860DFF82C8100206062D8F8002240F2C6
:103D0C001D139A43C8F8002284F8280000F04EF9DD
:103D1C00054640480830D0F840053E4EE061361D5F
:103D2C00D6F84005A06194F82100217D84F820107C
:103D3C00617A84F82110A14600243946284600F007
:103D4C0083F910B9C8F810A00124334FE807A7F184
:103D5C00100720D1A80727D506F06EF9F0B906F0A8
:103D6C005BF9D8B92F480068C0F3425CC0F300631C
:103D7C0000F00F02C0F30311C0F3032873B11AB1A2
:103D8C0011B1B8F1000F09D1C0F30440012805D1DD
:103D9C00BCF1030F02D2386880470EE045F3800077
:103DAC002146401C7A6807E015F0280F05D045F332
:103DBC004011BA682046491C9047E80601D5F868BE
:103DCC00804799F809104846022920D1017B002927
:103DDC001DD0022904D0012909D040F656410DE02E
:103DEC00C169D9F810000844C6F840050BE0016918
:103DFC00D9F81C00814204D840F657413E20FCF70C
:103E0C00C3FAC6F84015BDE8F04700F061B9BDE84B
:103E1C00F087000000800040040E002008F50140EF
:103E2C0000100040501400400B48817D0B48405C52
:103E3C0000F51660B0F5166F04D2A0F6381040F4F9
:103E4C00807001E0A0F51660054AC2F8080501F083
:103E5C007F00C2F854057047040E00208E4200000B
:103E6C000010004008B50B496B4691F91520897D6F
:103E7C0000F0AAFA9DF9000000F07AFA0DF10100A9
:103E8C0004F0E8F8002804D040F2E6513E20FCF79C
:103E9C007BFA08BD040E00200348017A012902D1E7
:103EAC00807AFFF7DFBF7047040E00200D4810B575
:103EBC00407A01280CD0022813D104F0ADF8002868
:103ECC000FD0401C0DD040F6AB013E20FCF75CFA45
:103EDC0004F0B4F8002804D0401C02D040F6A50130
:103EEC00F3E710BD040E002008480021C0F80011B3
:103EFC00C0F80C11C0F81011C0F80411C0F814115E
:103F0C00C0F81811C0F808117047000000100040EC
:103F1C00184810B590F82800C10729D0810714D58E
:103F2C001548D0F8001241F00101C0F80012D0F889
:103F3C005005C0B20B2805D00A2803D0032801D0A5
:103F4C00022815D140F20F610FE0400710D50A4846
:103F5C000A490830C1F814054FF4A071084805F05F
:103F6C000BFF002804D040F217613E20FCF70CFA3E
:103F7C0010BD0000040E00200010004098F001401D
:103F8C000080004008480146C27991F8281012B10F
:103F9C00012A03D006E041F0020101E041F00401E6
:103FAC0080F82810FFF7B4BF040E00202DE9F04173
:103FBC00224D0024287B38B14FF4A271204805F023
:103FCC00DBFE08B1012700E00027687A1D4E4FF494
:103FDC008671012802D0022806D016E0304605F082
:103FEC00C6FE90B1082410E0304605F0C0FE00B1CA
:103FFC000224D6F80004C04340F30000401C01D159
:10400C0044F004040FB144F0010414F00B0F07D179
:10401C004FF48871304605F0AAFE08B144F0100444
:10402C00FFF762FFE00606D5200704D4687A012862
:10403C0001D144F020042046BDE8F081040E00209C
:10404C0000800040001000402DE9F0411A4C0D4654
:10405C00217A29B110F0110F07D0FFF71FFB24E0D4
:10406C0000F090F8002020731FE0012901D00126F8
:10407C0000E00026E07901280ED0002700F082F83D
:10408C009621304600F094F801464FB13B358D42F5
:10409C0004D90020BDE8F0810127EFE70120E07191
:1040AC00A27A3046FFF734FD08B10120F2E740F662
:1040BC00A5213E20FCF768F9040E00200348D0F837
:1040CC00001241F48871C0F80012704700100040D3
:1040DC000448416A41F48001416203494FF4800075
:1040EC0008607047040E002004F50140074A0020C8
:1040FC0008320649C2F840050A1DC2F84005C1F84D
:10410C00400502490C31C1F8400570470080004061
:10411C000349C979002902D10249C1F81405704735
:10412C00040E002098F0014010B5144A20B101286B
:10413C0011D040F253711CE001F12800C2E90210C9
:10414C000F490E4803F080FF002815D0401C13D0F7
:10415C0040F242710DE001F12900C2E90210084958
:10416C00064803F05FFF002806D0401C04D040F244
:10417C004F713E20FCF708F910BD0000F80000203C
:10418C00B842000002480021C171017241727047AF
:10419C00040E0020054AD279012A06D04FF47A7217
:1041AC0001F5FA71B1FBF2F1401A7047040E0020D0
:1041BC0070B5134C03460D4694F8212000205AB1DB
:1041CC00214691F8201063B1012B11D1012A284608
:1041DC0012D005F0D6FD09E040F658013E20FCF760
:1041EC00D3F8012A284604D005F0D9FDE16908442A
:1041FC0070BD00F0D1F8F9E700F0C0F8F6E7000068
:10420C00040E002010B5FFF757FCFFF70DFEFFF76B
:10421C0043FEFFF753FF05F00FFF002808D105F010
:10422C00FBFE002804D10348016841F4C021016061
:10423C0010BD00006815004010B50446FFF73CFCAB
:10424C00FFF7F2FD2046FFF70DFE05F0F5FE002806
:10425C000DD0094A11685006022CD0F8200307D063
:10426C00C0F3062021F4FE4141EA0020106010BD8D
:10427C00C0F30660F6E700008815004000002CA68D
:10428C00E0A10406080A0C0E10121416181C1E20AD
:10429C00222426282A2C2E30323436383A3C3E4002
:1042AC00424446484A4C4E021A500000010000009D
:1042BC001011004000000000000000000000000091
:1042CC000000000000000000141E0000301100006F
:1042DC000000000028000000180000000000000092
:1042EC00141E0000301100000000000070170000C8
:1042FC00A00F000070B5054614460846FFF702FCF7
:10430C0005EB4501C1EBC511C0EBC101074850F8E5
:10431C00240008444FF47A7100F6B730B0FBF1F585
:10432C002046FFF7C3FB2844401D70BDC843000066
:10433C0070B50E4D1C46083D0C4B35F8111000EBBA
:10434C00400553F82230C5EBC01001EBC00003F65A
:10435C00B73318444FF47A71B0FBF1F51046FFF700
:10436C00A5FB28442044401D70BD0000C84300003C
:10437C000149C0B2086070470C150040054A32F87C
:10438C0011104FF47A7201F2E731B1FBF2F10844EB
:10439C00801E7047C0430000054A32F811104FF4DC
:1043AC007A7201F57A71B1FBF2F1084470470000A2
:1043BC00C04300000000DC05E80300000000000022
:1043CC00141E0000301100002DE9F8431E4617465C
:1043DC000C46054600F056F8DFF8A490804699F894
:1043EC000000A84210D199F801104846A1420BD107
:1043FC0090F90210B94207D1C278424504D18188A4
:10440C0031808079B07037E03A462146012D09D0D1
:10441C00022D09D0042D09D0082D09D040F261419C
:10442C0006200CE0002004E0012002E0032000E064
:10443C0002206B4600F09EF818B13D217520FBF769
:10444C00A3FF2046FFF722F90246002331469DF9CF
:10445C00000003F00BFE014689F807103188A9F81B
:10446C000410B17889F8061089F8005089F80140D9
:10447C0089F8027089F8038099F90700BDE8F88380
:10448C0090010020014800787047000010010020C6
:10449C0070B5174C6078002823D10120607005F0AE
:1044AC00A5FD6FF0270528B905F0D6FD10B905F06C
:1044BC00DDFD20B10F486060A570082010E005F00C
:1044CC006AFD40B905F071FD28B905F085FD10B9FC
:1044DC0005F096FD30B1074831306060A5700420BE
:1044EC00E07070BD40F23F11742003F001FC00003D
:1044FC001001002094A30000064A00B592F9032095
:10450C00904201DB104600BD00F008F80249085645
:10451C0000BD00001001002086A3000002461348D5
:10452C0010B590F903309A4201DB0D2010BD90F9C3
:10453C0002309A4201DC002010BD01B10121D41AD5
:10454C004368185D0A4C24569442F5D0084C084434
:10455C003F34C0B2D2B2A342EED10029ECD0012A32
:10456C0001D0022AE8D1401CC0B210BD10010020BD
:10457C0086A300002DE9F0411C4690460D460646E8
:10458C006FF01507042804D81CB105F013FCA842E1
:10459C0002D83846BDE8F0810548424650F826005E
:1045AC0018B14057824200DD024622700020F1E72C
:1045BC00380E0020014800787047000018010020D8
:1045CC0005490A78904201D300207047496800EBF6
:1045DC00400001EB00107047180100200D4910B588
:1045EC0091F8420020280FD091F84200A1F590627A
:1045FC0002EB401091F84210406802EB41110A683E
:10460C00BDE810400421104740F67F01702003F0F4
:10461C006FFB0000300B002070B50546202A28D017
:10462C0019481A4C00EB831C03EB43030CEB4200C0
:10463C002344202922D00CEB410140784C7848705F
:10464C00204601460CEB4100914205704078F8D1B0
:10465C0093F82A20202A1ABF0CEB4202547083F8DC
:10466C00294020220CEB410C8CF8012083F82A10F5
:10467C0070BD40F28621702003F03AFB93F828407D
:10468C00407883F82800DBE7B00A0020300B0020CC
:10469C002DE9F04F8FB015461E460C4602F07CFA01
:1046AC00281846F10001CDE90110D4E90023801A45
:1046BC0071EB0300C0F0E58008A8DDF860A00A905B
:1046CC00BC480AEB4A010844099090F82850202075
:1046DC000DF11C098DF81C00202D36D0B648002693
:1046EC0000EB8A1BB548D4E9007300EB451050F879
:1046FC00088FD0E9012118EB01017241791A73EB93
:10470C00020122D3E189C9B1C089B8B903F050F9CB
:10471C00B0F5C67F08BF0D200BD0A0F54070563801
:10472C0008BF1C2005D0A0F500709F3814BF304680
:10473C003220401CB7EB0801814206DB0BEB450035
:10474C0089F800504578202DCCD10A9899F80010A2
:10475C00202D0170DDF8289000F028819648974FA5
:10476C0000EB8A100026049007EB451A0AF10800AA
:10477C00D4E90112D4F800B0D0E900831BEB02029B
:10478C007141B8EB020273EB010120D3C089002800
:10479C0000F00C81E089002840F0088103F008F952
:1047AC00B0F5C67F08BF0D200BD0A0F54070563871
:1047BC0008BF1C2005D0A0F500709F3814BF3046F0
:1047CC003220411CB8EB0B00884280F2EF8089F854
:1047DC0000509AF81800217C814207D2049800EB13
:1047EC0045004578202DBFD100F0E0B89DF82000A1
:1047FC0007EB4010D0E90312D0F80890C08A19EBEF
:10480C00020541EB0608B0BBE089A0B303F0D0F879
:10481C00B0F5C67F08BF0D200BD0A0F54070563800
:10482C0008BF1C2005D0A0F500709F3814BF30467F
:10483C003220411CB5EB090088421CDA03F0B8F8B1
:10484C00B0F5C67F08BF0D200BD0A0F540705638D0
:10485C0008BF1C2005D0A0F500709F3814BF30464F
:10486C0032209DF82010401C07EB4111D1E90223A6
:10487C00151843EB0608DDE90101491B70EB080034
:10488C0003D20FB00020BDE8F08FC4E9005818988F
:10489C000B9008A80A9009980DF11C0A90F8285062
:1048AC0020208DF81C00202D37D043480B9900EBAD
:1048BC00811B00BF07EB4510D4E9008350F8089F1B
:1048CC00D0E9011219EB02027141B8EB020273EB51
:1048DC00010122D3E189C9B1C089B8B903F068F8E4
:1048EC00B0F5C67F08BF0D200BD0A0F54070563830
:1048FC0008BF1C2005D0A0F500709F3814BF3046AF
:10490C003220411CB8EB0900884206DB0BEB45005A
:10491C008AF800504578202DCCD10A989AF80010CE
:10492C00202D0170DDE90A8040D0234901EB801075
:10493C00CDF80C0007EB451909F10800D4E9011278
:10494C00D4F800B0D0E900A31BEB02027141BAEB22
:10495C00020273EB01011BD3C08938B3E08928BB79
:10496C0003F026F8B0F5C67F08BF0D200BD0A0F5DC
:10497C004070563808BF1C2005D0A0F500709F3839
:10498C0014BF30463220411CBAEB0B0088420DDAC2
:10499C0088F8005099F81810207C8842BFF426AF94
:1049AC00039800EB45004578202DC3D10FB00120B2
:1049BC00BDE8F08F300B0020B00A0020B0060020BC
:1049CC002DE9F04383B0914604460D46984601AA62
:1049DC006946184602F0FCF802F012FE02F0DCF810
:1049EC0007461E4890F842100026202909D08268FC
:1049FC00C1680069831D46F10000D41841EB000525
:104A0C0026E00A3445F10005B8F1000F17D003F089
:104A1C00F7F8A0B902F0CCFFB0F5C67F08BF0D20A7
:104A2C000BD0A0F54070563808BF1C2005D0A0F55F
:104A3C0000709F3814BF3046322004197541B9F10B
:104A4C00000F05D10098874202D9381A0419754114
:104A5C0003B020462946BDE8F0830000300B00204F
:104A6C002DE9FF4F81B0054602984A4900EB400002
:104A7C000844002690F82840202092461070A1F59A
:104A8C009069202C36D0029909F5806000EB811BCF
:104A9C0009EB4410D5E9007350F8088FD0E90112E6
:104AAC0018EB02027141BA1A73EB010122D3E989A6
:104ABC00C9B1C089B8B902F07BFFB0F5C67F08BF99
:104ACC000D200BD0A0F54070563808BF1C2005D027
:104ADC00A0F500709F3814BF30463220411CB7EB54
:104AEC000800884206DB0BEB44008AF8004044784F
:104AFC00202CCDD104989AF80010202C0170049F22
:104B0C00029842D0244901EB80100090D5E9013184
:104B1C00D5F800B009EB441808F108001BEB0102B2
:104B2C0043EB0601D0E900A3BAEB020273EB0101DF
:104B3C001BD3C08948B3E88938BB02F039FFB0F504
:104B4C00C67F08BF0D200BD0A0F54070563808BFAB
:104B5C001C2005D0A0F500709F3814BF30463220C1
:104B6C00411CBAEB0B0088420FDA3C7098F8181015
:104B7C00287C884203D305B00020BDE8F08F009854
:104B8C0000EB44004478202CC0D105B00120BDE8D6
:104B9C00F08F0000300B0020B00A00202DE9FF5FE1
:104BAC009CB01F4602F064FA04460D4602F028FD44
:104BBC0006461E98012818BF022805D040F656114B
:104BCC004FF0700003F094F8FE4901200860FE4994
:104BDC008968086000208DF852000C90401E0D90E2
:104BEC00FA480DF1380800EB471000F1080191E884
:104BFC000E1088E80E10D0E90610CDE912100E98B0
:104C0C0020F07F4005F006F90246BDF846809DF87D
:104C1C004400EF4B4044411C50189A4256D8ED4A80
:104C2C0091425BDC5242914260DB591C8142DCBFF9
:104C3C0000F5F700A0F1F85005DD0028BCBFA0F589
:104C4C00F70000F1F8501790E348B8F1000FB0F8F6
:104C5C00A000ADF8500014BF4FF0010A4FF0000A4D
:104C6C0002F0CEFF1990BAF1000F0BD0DB49D1E95D
:104C7C000E016FEA000272EA010002BF19980028C7
:104C8C00012701D04FF0000702F092FEB0F5C67F6D
:104C9C0008BF0D200BD0A0F54070563808BF1C2063
:104CAC0005D0A0F500709F3814BF002032204FF0C3
:104CBC000009CB461690464536D91799F343DFF8D1
:104CCC0010C3C818E9461AAA614504D940F27F51AD
:104CDC00702003F00DF8BF498B4204DD4FF4B06136
:104CEC00702003F005F8BE498B4204DA40F2815182
:104CFC00702002F0FDFFBB498142DCBF00F5F700DC
:104D0C00A0F1F85005DD0028BCBFA0F5F70000F1BC
:104D1C00F850494601F05CFF00980E9920F07F4056
:104D2C000090081A20F07F49002F18BFDDF858B00A
:104D3C0005D19DF85000002818BF4FF0020BE0433E
:104D4C0070EA050022D0DDE90E01221A75EB010292
:104D5C000CD2021B61EB0501B2F5000271F10001EE
:104D6C0011D340F69511702002F0C2FF221A65EBA8
:104D7C000101B2F5000271F1000104D340F6991162
:104D8C00702002F0B5FF001B012803DA1C981A9062
:104D9C0003200DE057B1914890F8400030B19DF8D8
:104DAC00500010F1000B18BF4FF0020B00201A94AA
:104DBC008344DDE90E02B0EB090062F10001421EF2
:104DCC001A9B41F1FF3ED31A5B4508DBB9F1000F8A
:104DDC0032D0109BCDE90E014B4410932CE0B9F16D
:104DEC00000F05D09DF8510020B902F0FFFB08B16F
:104DFC00AFB90CE02FB99DF85000002818BFABF1EB
:104E0C00020B4FF000098DF850904E4607E09DF8CC
:104E1C00500020B100208DF85000ABF1020BDDE901
:104E2C000E02B0EB090062F10001421E1A9B41F127
:104E3C00FF3ED31A5B457DDB199B9BB9674BD3E9CE
:104E4C000EC36FEA0C0979EA03090BD0B0EB0C0C1A
:104E5C00169861EB0303BCEB000073F1000038BF44
:104E6C00002000D301203AEA000063D1DDE91C10D8
:104E7C00CDE907011E989146CDE91870F34600273D
:104E8C0002F096FDB0F5C67F08BF0D200BD0A0F543
:104E9C004070563808BF1C2005D0A0F500709F3814
:104EAC0014BF38463220DDE907320B30B9EB020271
:104EBC006BEB0303101A73F100002AD21998012826
:104ECC0002D0189848B117E0E04370EA050027D1EA
:104EDC0040F6D701702002F00BFFE04370EA0500AA
:104EEC000AD01DD0B4EB090065EB0B010023D0F107
:104EFC00040273EB010206DA4C465D462046294655
:104F0C0001F096FF0CE00022101A72EB010011DB8D
:104F1C0006E04C465D462046294601F089FF57467F
:104F2C00E14371EA050071D024F07F404FF0000B93
:104F3C000E9900E06FE00B1ADDF840C023F07F43C0
:104F4C0011EB0C01081A20F07F40012B63D3B3F551
:104F5C00000F98BFB0F5000F5DD824F07F4004F02F
:104F6C0059FF17991B4A0D1AAA1A7BF1000216D386
:104F7C00184B421AD31A7BF1000310D3144BAB42DB
:104F8C003EBFC0F5902000F1F450451807D3934272
:104F9C0045D2C1F5902101F1F45108444542DFF8A6
:104FAC003C9099F8220078B31E98012805D0022075
:104FBC0002F0CAF9012002F0C7F9B04540D2A5EBC6
:104FCC00060111E00805004020010020B006002079
:104FDC00FF7F841E0040420FB00A0020300B0020DF
:104FEC0000C0BDF00080841E4FF0020002F0F2F809
:104FFC0098B3B8F1000F1CBFA5EB0801012035D008
:10500C0002F0E8F848B331E00EE0FFE740F6032188
:10501C00702002F06DFE20B00020BDE8F09F40F63D
:10502C00D721702002F064FEB04534BF30464046B4
:10503C001E30A842B8DB40F61721702002F058FE53
:10504C000CD9A5EB0801012002F0C4F828B1002E00
:10505C001CBFA91B022009D0D2E734E056EA080095
:10506C0004D040F63A11702002F042FE294600208E
:10507C0002F0B0F838B30126BAF1000F04BF99F86A
:10508C004000002800D047B3D9E90E106FEA0101A7
:10509C0071EA000006D002F091FC4FF0FF3001469F
:1050AC00C9E90E01FFB11698201A20F07F414FF08C
:1050BC00050002F08FF870B399F84000002808BF83
:1050CC0089F8406017E0022002F03EF9012002F05E
:1050DC003BF920B00020BDE8F09FD9E90E01C04398
:1050EC0070EA010012D099F8400020B1052002F0BE
:1050FC002BF989F840B0A5EB0800A0F119010029A3
:10510C000FDC4FF42461702002F0F2FD02F072FC0F
:10511C0002F03EF8C4E7FFE740F2E621702002F00F
:10512C00E7FD032002F056F838B316488068C0F843
:10513C0000B01548C0F800B00CAC144894E80E1040
:10514C00C0F88010C0F88420C0F88830C0F88CC03B
:10515C0010AC94E80E10C0F89010C0F89420C0F871
:10516C009830C0F89CC0DDE91412C0F8A010C0F84B
:10517C00A42020B00120BDE8F09F40F6482170200B
:10518C0002F0B6FD2001002008050040B00A002006
:10519C0070B51D4D95F84200202818BF70BD95F8CC
:1051AC00412002EB4200284490F82840202C26D0C5
:1051BC00164B03EB821101EB4401497880F828105F
:1051CC00FF2085F8310085F842402146022000F08E
:1051DC008BF8002085F8300085F822000C4800EB95
:1051EC004410007E002808BF02F0EAFE00200949A6
:1051FC004968002908BF70BDBDE87040084740F2FF
:10520C001D31702002F074FD300B0020B00A00201C
:10521C00B0060020200100202DE9F05FDFF8B880F7
:10522C0098F8415005EB4500404490F82940202C5B
:10523C0008BFBDE8F09FDFF8A4B0DFF8A490A9F593
:10524C00806A09EB8517072617F8140001280ED081
:10525C00042808BF02260AD005280CBF03260628FE
:10526C0005D04FF40A614FF0700002F041FDBBF124
:10527C00000F18BFAFF30080EFF3108072B607EB8E
:10528C0044014A7805EB4501414481F8292091F805
:10529C002A20A24204BF202281F82A20A8B12A4643
:1052AC002146012000F020F80AEB4411D1E900203E
:1052BC003146904798F8415005EB4500404490F832
:1052CC002940202CBDD1BDE8F09F0648002818BF0E
:1052DC00AFF3008062B6E2E7300B00200000000064
:1052EC00B00A002000000000DFF858C010B5002301
:1052FC000CEB821C07281FD2DFE800F00505050522
:10530C000404040001230CF81100002B08BF10BD8D
:10531C0002EB42020C48024492F82A0020280EBFED
:10532C0082F829100CEB4000417020200CEB41035B
:10533C00587082F82A1010BD4FF41771702002F0CB
:10534C00D7FC0000B00A0020300B00202DE9F05FE4
:10535C000F468046DFF854B101EB47005844B8F1D2
:10536C00010F90F82840254618BFB8F1020F05D060
:10537C0040F67E214FF0700002F0BAFC202D41D097
:10538C009BF822000026002808BF022601F04AFDE7
:10539C00DFF81C9109EB441399681B690A1AC918A8
:1053AC00091A22F07F4221F07F41964299BFB2F553
:1053BC00000FB1F5000F3F4A02EB871A20D92246A5
:1053CC000AEB42014C78202C12D009EB441399685B
:1053DC001B69B1EB000CC918091A2CF07F4C21F099
:1053EC007F4166459CBFBCF5000FB1F5000FE6D8B8
:1053FC00202A05D03B4620210420FFF70DF9044656
:10540C00AC4213D12C48002818BFAFF3008001F038
:10541C00BFFE9BF84320202A0BD0DBE90232841C10
:10542C0041F1000C1B1B72EB0C0202D20020BDE8F8
:10543C00F09F202D13D02B464246FFF7AFFB0028E0
:10544C001EBF8BF843500220BDE8F09F3B462A4616
:10545C0020210420FFF7E0F80020BDE8F09FDBE9F5
:10546C000E01C04370EA010005D002F0A7FA4FF01C
:10547C00FF30CBE90E009BF8400028B1052001F06D
:10548C0063FF00208BF84000042001F05DFF01F069
:10549C00C3FF0A4920208BF843008968002008606C
:1054AC00074908600120BDE8F09F0000300B002088
:1054BC00B0060020B00A00200000000020010020EF
:1054CC00080500402DE9F04FDFF8C4B106468FB057
:1054DC009BF842008A46202861D09BF842100BF1C1
:1054EC000804ABF5906808EB411920218DF81810D1
:1054FC009BF84110DBF8082001EB410159440027CF
:10550C0091F82850DBF8101051180A91DBF80000C4
:10551C0009AA304407A901F05BFBD9F810000799E0
:10552C00D9F8082040181018672E3DD3594900228D
:10553C00891B72EB070137D321689446401A20F07F
:10554C007F41D1F500017CEB0C012DD3A06008F557
:10555C00906084F810A090F841000DF1180B202DEC
:10556C0055D008F5806101EB801001904A48D4E9D0
:10557C000131D4F800A000EB451808F108001AEB33
:10558C00010243EB0701D0E90093B9EB020273EB84
:10559C00010125D3C08998B3E08948B137E040F6C2
:1055AC003531702002F0A4FB0FB00120BDE8F08F64
:1055BC0002F0FEF9B0F5C67F08BF0D200BD0A0F5A8
:1055CC004070563808BF1C2005D0A0F500709F38DD
:1055DC0014BF38463220411CB9EB0A00884216DA57
:1055EC008BF8005098F81800217C814209D321686F
:1055FC000A98401AA0600FB04FF00200BDE8F08F7F
:10560C0005E0019800EB45004578202DAED1052032
:10561C0001F09AFE1E4D4FF0FF30686095F8413056
:10562C009DF818202021202A03D00520FEF7F4FF36
:10563C0004E003EB4300284490F8280095F841203F
:10564C00164901EB821195F8422001EB420148709A
:10565C00286830442860FF2085F83100687E0128D6
:10566C000AD1D4E901202368181842F10001401E28
:10567C0041F1FF3101F08AFC9DF81800202803D07D
:10568C000748407802F006FC0FB00020BDE8F08F10
:10569C00300B00200040420FB0060020B00A002062
:1056AC002001002070B5234A92F84210202939D0ED
:1056BC0092F84210A2F5906303EB411C92F8411052
:1056CC0092F8414001EB4101114491F82810A2F1EC
:1056DC00800505EB8414202929D003EB41152D7E80
:1056EC00A8423CBF04EB41014978F4D3DCE90360E8
:1056FC0003EB4113DCF80850D3E9021314682818A3
:10570C0046F10002B1EB000C73EB020208D3081A4D
:10571C0004F080FB04F1670181429CBF001B70BD4B
:10572C00002070BD40F60831702002F0E1FA4FF015
:10573C00FF3070BD300B00200A4910B501EB401052
:10574C0000F10804D4E9000101F0C4F9E389002256
:10575C00C318207B514118185141401C41F10001E4
:10576C0010BD0000B0060020F8B56F4D002605F501
:10577C0090640127D4E90E126C4B082873D2DFE831
:10578C0000F00478A0B3CE47B8BDC84370EA02005D
:10579C0005D102F02FF901F0FBFCC4E90E01E08AFF
:1057AC0010B102F02DFA80B1FFF7F2FCFF2084F863
:1057BC002F006168B1F1FF3F03D0052001F00AFD15
:1057CC0040B1607E012814D109E040F62C01702014
:1057DC0002F08EFA40F63101702002F089FAA268CC
:1057EC002069E16810187141401E41F1FF3101F050
:1057FC00CDFB94F8420094F8421005EB4010406841
:10580C0005EB41110A6801B00121BDE8F0401047D9
:10581C0094F8400060B1C84370EA020005D102F070
:10582C00E9F801F0B5FCC4E90E0184F84060F8BD5C
:10583C00FFF7AEFC4FF0FF30606094F82F008DF84E
:10584C0000009DF8000078B194F8420094F84210E2
:10585C0005EB4010406805EB41110A6801B00621C8
:10586C00BDE8F04010475AE040F64801702002F0C5
:10587C003FFAFFF78DFC84F82E7002F0C1F930B1BD
:10588C00D4E90E10C94371EA000005D00AE040F6D5
:10589C005601702002F02CFA02F0ACF801F078FC02
:1058AC00C4E90E0194F8420094F8421005EB401044
:1058BC00406805EB41110A6801B00021BDE8F040D9
:1058CC00104701F07FFEE08A10B102F099F930B177
:1058DC0001F08CFE002818BF84F82170F8BD4FF43D
:1058EC000661702002F004FA11480760986807609E
:1058FC00F8BD1878BDE8F84002F0CCBAFFF748FCC8
:10590C0094F8420094F8421005EB4010406805EB07
:10591C0041110A6801B00521BDE8F040104740F67E
:10592C007301702002F0E4F9B00600202001002081
:10593C00080500402DE9F34FF74897B00C46006876
:10594C00F64FC005C00D0ED0103840B20028B8BFBD
:10595C0000F00F0000F1E020ACBF90F8000490F8CC
:10596C00140D40090CD020784FF0000A002818BF05
:10597C00012817D040F2F9614FF0700002F0B8F92D
:10598C0097F842004FF0010A202806D0207848B141
:10599C0040F2F561702002F0ABF940F2F261702038
:1059AC0002F0A6F9DFF878B3BBF1000F04D00021A8
:1059BC0040F2FC60AFF300800020CDE9100005A997
:1059CC001291D84917984FF0010801EB4010019043
:1059DC00BBF1000F04D0002140F20770AFF3008040
:1059EC00B8F1000F09D000BF97F84160002587F887
:1059FC003150BAF1000F07D03EE0CB48002818BF59
:105A0C00AFF3008062B6EFE7B146012020EA090649
:105A1C00C648402200EB891100EB861004F08AFB8B
:105A2C00BBF1000F04D0002140F23C50AFF30080DA
:105A3C0009EB490106EB4600394438440A8D0285CE
:105A4C0091F82A1080F82A10BBF1000F04D0002125
:105A5C004FF4A860AFF30080BBF1000F04D000211D
:105A6C0040F21170AFF3008097F831008DF82000F0
:105A7C009DF820000028ABD1BBF1000F04D0002111
:105A8C0040F21B70AFF3008001F082FB814602A84C
:105A9C000A9088462189284661F31F400146A27A64
:105AAC00284662F30700E27A62F30F20227802950F
:105ABC0062F31740CDE90451CDE906050395207832
:105ACC0080B3BDF816009A49081A0A9901F10C0224
