:10000000404B002061DF0000DD76010019DF0000B9
:1000100019DF000019DF000019DF000000000000F8
:100020000000000000000000000000008DCA000079
:1000300019DF00000000000035CA000019DF0000D1
:1000400065CB00005790010065CB000065CB000038
:1000500065CB000065CB000065CB000065CB0000E0
:100060001F90010065CB000065CB00003D900100B2
:1000700065CB000065CB000065CB000065CB0000C0
:1000800065CB000065CB000065CB000065CB0000B0
:1000900065CB000065CB000065CB000065CB0000A0
:1000A00065CB000065CB000065CB000065CB000090
:1000B00065CB000065CB000065CB000065CB000080
:1000C00065CB000065CB000065CB000065CB000070
:0C00D00065CB000065CB000065CB000094
:1000DC0053B94AB9002908BF00281CBF4FF0FF31A3
:1000EC004FF0FF3000F00CB8ADF1080C6DE904CE08
:1000FC0007F084FBDDF804E0DDE9022304B070476F
:10010C00704700BF1FB5144C207A8DF80100E079C0
:10011C008DF80000A079ADF804006079ADF802000C
:10012C00684602F0E1FB08B1AD2110E0E0680290F6
:10013C0002A802F0EFFB08B1B12108E00748006803
:10014C00039003A809F0C7FA002803D0B5210320B7
:10015C0000F0E4F81FBD0000C00A0020B00300004E
:10016C0010B528B11422044909F03CFF002010BD41
:10017C006FF0150010BD0000D803000070B56FF0D3
:10018C002C0578BB224C607808B1A81170BDF9B170
:10019C006FF01500002AF9D01E4B891E072931D2A9
:1001AC00DFE801F00407171A301D21001078587091
:1001BC001DE091780029E9D0D1780029E6D011789A
:1001CC001B29E3D351781B29E0D31068C3F8050031
:1001DC000DE01068D8600AE01078987007E010887D
:1001EC00588204E00EE01188FF29CFD8197501223E
:1001FC000849002007F052FCB0F5803F04DB6FF09B
:10020C000B0070BD284670BD0121A17070BD0000AF
:10021C0040000020C00A002010B5074C607820B1C7
:10022C0002F010FD207807F009FA00F0DBFD00F079
:10023C00B3FE0020607010BD4000002070B50C466D
:10024C00050002D00CB1600702D06FF0150070BD34
:10025C0000F0E2F8A8B1284607F0B6F90A4D0022E2
:10026C000A492870204607F019FC09F088FC002187
:10027C00287802F0D1FCFFF745FF012068700020C0
:10028C0070BD4FF0FF3070BD40000020C00A002050
:10029C0030B589B004000CD007F03EF94FF0FF35B3
:1002AC0020B106F0EFFFB0F5FA7F05D9284609B06A
:1002BC0030BD6FF01500FAE7134D14486C6000F078
:1002CC00BFF900206870A87001462422684609F026
:1002DC0003FF24220E49684609F084FE2422694655
:1002EC000C4809F07FFEEFF3108472B600F088FD25
:1002FC00094800F05DFE18B1CB21032000F00EF888
:10030C0004B962B60020D2E74000002011010000C1
:10031C00B4030000C00A0020510400000EB572B6F0
:10032C00154A5568DDB1002203466E460A2403E0E7
:10033C00B0FBF4F0521CD2B20028F9D1B0540AE050
:10034C00D8B2B0FBF4F7B3FBF4F304FB1700521E66
:10035C00D2B23030B054002AF2D13046A847BFF3A5
:10036C004F8F06480168064A01F4E06111430160B1
:10037C00BFF34F8F00BFFDE7400000200CED00E005
:10038C000400FA05064810B581784078014302D084
:10039C004FF0FF3010BD02F065FC002010BD0000D6
:1003AC00400000200100000000010100001B1B03A5
:1003BC00020000004C1D000000001F00080000009F
:1003CC00000000000000000000000000E07E2EC1D4
:1003DC005E0585234615DCFA8E297D701093A5FCED
:1003EC00054A10B5526812B1BDE810401047922171
:1003FC000420FFF793FF0000E40A0020054A10B523
:10040C00926812B1BDE81040104798210420FFF704
:10041C0085FF0000E40A00200548016829B1416805
:10042C0019B1806808B101207047002070470000A6
:10043C00E40A002002490DC881E80D000020704735
:10044C00E40A0020F8B5124C0026256811E000984B
:10045C00022802D003280CD106E0206810B100203D
:10046C00266005E028210CE0206868B10120266098
:10047C00A847684600F062FD0028E8D0052805D0A2
:10048C0035210420FFF74AFF2D21FAE7F8BD0000C3
:10049C00480000202DE9FC41284E0546001D06F1C0
:1004AC0044073060387858B1BA783C46791C2846F5
:1004BC00921C09F097FD002020700420BDE8FC81FF
:1004CC001E4800F07DFF0446022804D0042C07D0FF
:1004DC00082C2CD02FE01949284607F064FB2AE0A1
:1004EC003078082804D105213E2007F048FB50B194
:1004FC001249284607F0BCFBB0F5817F0ED3C7210B
:10050C000820FFF70BFFB088ADF8000001A9684682
:10051C0007F000FE0028C5D0A821F1E70028C1D0C3
:10052C00A978287807F02BFB0028BBD003E00349FF
:10053C00284607F066FB2046C0E70000F00A0020C2
:10054C0070B50A7882703AB3012A25D81323037048
:10055C0000230AE001EB430400EB4305A678EE70A0
:10056C006488240A5B1C2C71DBB29342F2D3002307
:10057C000BE000BF01EB430500EB43042E796671E1
:10058C00AD882D0A5B1CA571DBB29342F2D301211D
:10059C0001EB8200C0B270BD002070BD402803D2B8
:1005AC00401EC1B2054805E0FF2805D04038C1B255
:1005BC000248083007F05BBD012070474C0000205A
:1005CC00401EC1B2014807F052BD00005C00002083
:1005DC00024902680A614068486170474C0000207B
:1005EC00054902680A60406842F48C220A60034A9A
:1005FC0010434860704700004C000020F807400290
:10060C0007484FF0FF3100220160C90C416000F136
:10061C0008011F200A604A600831C1E900027047D6
:10062C004C00002010B5FFF7EBFF09F023F904464E
:10063C000248006800B18047204610BD64000020CD
:10064C000149086070470000640000202DE9F0416A
:10065C0004464FF08050D0F8A0701F4D1E4E103D38
:10066C0010220021204609F037FD1022002104F150
:10067C00100009F031FD2868401C08D16868401C46
:10068C0005D1A868401C02D1E868401C07D0286836
:10069C006A68A968EB6820616261A161E36100206E
:1006AC0000F0DAFC8743F80713D13068401C08D1FE
:1006BC007068401C05D1B068401C02D1F068401C29
:1006CC0007D032687068B168F36822606060A1601E
:1006DC00E3600020BDE8F0819000001038B54FF0C9
:1006EC00805104462248D1F8A010214D0268143DD7
:1006FC00521C04D14268D2431204120C35D0C907E3
:10070C0033D001684068ADF80000C4F80110BDF8A2
:10071C000000A4F80500A07940F0C000A071286882
:10072C00401C0CD06868401C09D0A868401C06D03E
:10073C00E868401C03D0002000F08EFC40B1102271
:10074C000021E01D09F0C8FC01202070002038BDFC
:10075C002A686968A868EB68C4F80720C4F80B100D
:10076C00C4F80F00C4F81330EEE70020EDE70000EA
:10077C00A400001002210180418000210171E021C0
:10078C00417142F67E61C180014981600020704751
:10079C00C15E05852DE9F0418C79DDF818E0082C57
:1007AC0001D9DB212CE0DFF8A4C05CF820500DB19E
:1007BC00DC2125E0CD79002D45D06F000A371D686E
:1007CC00022C3D4401D9264601E04FF002062E448E
:1007DC00A6F1010601D9254601E04FF00205A5F16D
:1007EC00010526EA05068D882544A4F10104A5F12E
:1007FC00010525EA04054FF6FF74A54203D3E72152
:10080C001720FFF78BFDBEF1000F18D1F41B4CF82D
:10081C0020402580C879A0700120E0702271086802
:10082C004FF6F072000CE08008882081002003E075
:10083C0004EB4007401C7A81CF798742F8D8C879FD
:10084C0000FB05601860BDE8F08100006800002026
:10085C0030B503464FEA020003EB400464898C4236
:10086C0009D09C78401CB0FBF4F504FB1500C0B219
:10087C009042F1D1FF2030BD70B50546194850F8B3
:10088C00214064B3B5F5706F04D340F225211720D5
:10089C00FFF744FD2946204607F03CFD0146FF28A2
:1008AC0004D02046BDE8704007F048BDA078B5FBE9
:1008BC00F0F100FB1150C6B232464FF6F0712046F3
:1008CC00FFF7C6FF0246FF2809D0B24201D0002034
:1008DC00E07029462046BDE8704007F015BD0020A9
:1008EC0070BD000068000020084A10B552F8214085
:1008FC000146204607F00EFD0146FF2804D0204695
:10090C00BDE8104007F01ABD002010BD68000020A3
:10091C00F0B589B004000E46069407D00025600798
:10092C0006D040F219111720FFF7F8FC0125F6E765
:10093C0014480022144F02604260D7E9001096F868
:10094C0000C0BB686CF31F60CDE90203CDE9005118
:10095C0006AB01A91046FFF71DFFD7E9031073780A
:10096C007A6963F31F60CDE90202CDE9005106AB51
:10097C00002201A90120FFF70DFF069809B0001B0A
:10098C00F0BD000068000020840A000010B5044689
:10099C0080790E4951F82000A8B14FF6F073E17937
:1009AC00827891420FD24A1CE27100EB41025289CB
:1009BC009A42F4D000EB41025289A28007F0BEFCAF
:1009CC002060002010BD052010BD00006800002034
:1009DC002DE9F04107464FF6FF703880124850F869
:1009EC002140ECB1A5782079B0FBF5F105FB11069F
:1009FC0032464FF6F0712046FFF72AFF0246FF28D9
:100A0C000ED0A81B1044B0FBF5F105FB11002179A9
:100A1C00084481B239802046BDE8F04107F074BC2F
:100A2C000020BDE8F0810000680000202DE9F041B5
:100A3C000646104850F821503146284607F06AFC0B
:100A4C000446FF2812D0D5F8060021464FEA30475D
:100A5C00284607F073FC01463046B84705EB4401C5
:100A6C004FF6F07048810020BDE8F08143F202009F
:100A7C00FAE7000068000020A9920000F8020800C4
:100A8C00000000009D8B0000180108000000000011
:100A9C002DE9FF4F244C064681B020689A469346B8
:100AAC0058B1017AB14203D9406850F8260040B1E0
:100ABC0043F2020005B0BDE8F08FA5211820FFF726
:100ACC002DFC1946029807F074FC804658460E9986
:100ADC0007F065FC054608EB0500001D87B2206891
:100AEC00A1463946006807F0AAFB04001AD06780BB
:100AFC0025802946201D0E9D07465A460923009540
:100B0C0007F04AFB2088414638440A23029ACDF864
:100B1C0000A007F041FBD9F80000406840F82640DF
:100B2C000020C7E70420C5E77000002070B5144C06
:100B3C0023688BB1197A814212D95A6852F8201065
:100B4C0071B1002542F820504A88186807F0CFFB95
:100B5C00216800200A7A0CE0C6211820FFF7DEFB82
:100B6C0043F2020070BD4B6853F8203033B9401C7F
:100B7C00C0B28242F7D8086807F0AEFB002070BD07
:100B8C00700000202DE9F0410D46040090464FF016
:100B9C00000606D00027A00705D086211820FFF7F5
:100BAC00BDFB0127F7E7CDB11146002007F078FB1C
:100BBC000C3000EB85068FB90A4F04F10C00AA002B
:100BCC003C602572606000EB85002060002160684D
:100BDC0009F082FA4146386807F062FB3046BDE8FE
:100BEC00F0810000700000200A4910B50246096827
:100BFC00002059B10B7A934207D9496851F8221059
:100C0C00002902D031F8040B084410BDFA21182039
:100C1C00FFF784FB7000002070B51E4B456804463E
:100C2C000022A1B101206070588881085FF000009B
:100C3C0004EB400304EB80061A83198400FB015378
:100C4C0073602318401C1A750428F1D370BD6270B0
:100C5C005FF0000004EB40010A830A8404EB80017E
:100C6C004A602118401C0A750428F3D35888B0F543
:100C7C00FF7F01D2460800E0FF2607F00EFC6560FE
:100C8C0020842918A1606684E560A0842161E68433
:100C9C0070BD0000740000202DE9F04158B1002512
:100CAC001144244ECCB200273470810705D04E215C
:100CBC000920FFF733FB0125F2E71F2B04D84FF671
:100CCC00FF7101EA830109E05900FF2B0CD903F1F4
:100CDC00FF02B2EB430F00D2114689B24FF6FC7201
:100CEC00C91C114035B107E07C22B2EB430FF4D3A1
:100CFC007C21F2E77060718004EB840207EBC20385
:100D0C00002276684FF0010C0DE04DB902EB820722
:100D1C0000EB030E06F837C006EBC707C7F804E074
:100D2C00521C0B44D2B2A242EFD3DB1D23F00700BE
:100D3C00BDE8F0817400002070B5104A00205168A5
:100D4C00127814E000EB800311F833306BB100EB38
:100D5C00800011EBC0040CD00025A57001212046A9
:100D6C00FFF75AFF2570204670BD401CC0B2904260
:100D7C00E8D3A9210920FFF7D1FA00007400002064
:100D8C00044810B54088840807F087FB844200D3E0
:100D9C00204610BD7400002030B50D49012048607C
:100DAC00821EC1F808230B4988600023C1F8003269
:100DBC00C1F80823084C2360251D28608860C1F801
:100DCC0008232360286006490448086030BD0000F1
:100DDC0000E0004000F0004000F500400000F63F4D
:100DEC0008F5014010B5FFF7D7FF07F02DFC0349BC
:100DFC000148086010BD00000000F63F08F50140F6
:100E0C0010B5FFF7C9FF07F01FFC00F087F8054984
:100E1C000348086000F0B8F8BDE8104000F0DCB8FA
:100E2C000000F63F08F501402DE9F84F824638489E
:100E3C0008F0E7FFDFF8D8B028B101260BF101006C
:100E4C00FF21017000E000264FF48075314C4FF00B
:100E5C0000082F1D01216160C4F80081C4F80481D1
:100E6C00C4F804A52160DFF8B0901CE0D9F80000AC
:100E7C00C00618D50E2007F0F6FBEFF3108000909B
:100E8C0072B603212046C4F80413294607F0F8FB78
:100E9C0030B93946204607F0F3FB08B909F048F899
:100EAC00009800B962B62946204607F0E9FB28B93C
:100EBC003946204607F0E4FB0028D7D039462046B7
:100ECC0007F0DEFB0028C5D106BB9BF801108DF89E
:100EDC000010009900919DF8001009B1012500E067
:100EEC0000250BF1010080F800800320C4F80803F2
:100EFC00C4F80481C4F800810E2007F0B4FB044848
:100F0C0008F096FF15B11120BDE8F88F0020FBE723
:100F1C007401002000E0004010ED00E010B5064820
:100F2C0008F082FF18B130211D20FFF7F7F90248B5
:100F3C000021417010BD00007401002070B51149F2
:100F4C000A68EAB100231D4601244A68521C4A6013
:100F5C00092A00D34D600E7904FA06F20E68164287
:100F6C000BD0EFF3108372B60C6894430C6003B98A
:100F7C0062B649680160002070BD5B1C092BE4D38C
:100F8C00052070BD7C0000200248002101604160FA
:100F9C00704700007C00002010B5044C2078FF281E
:100FAC0003D006F04BFBFF20207010BD000000208A
:100FBC0010B5084C617809B10F2010BD06F004FB88
:100FCC002070FF2801D0002010BD73211F20FFF7D7
:100FDC00A5F900000000002001490020487070476E
:100FEC000000002005498A8C824205D1002081F83E
:100FFC0022004FF6FF70888470470000100D00200F
:10100C000A4A10B1012807D00EE0507860B1D2F82E
:10101C0002000860D08804E0107828B1906808605D
:10102C00908988800120704700207047760100204D
:10103C00084A012338B1012804D113700868906064
:10104C0088889081704753700868C2F802008888BD
:10105C00D080704776010020064910B1012802D0DB
:10106C0005E0487800E0087808B1012070470020BE
:10107C007047000076010020014908777047000096
:10108C00D205002000487047C00E002004494A7861
:10109C00824203D9084490F84201704700207047FF
:1010AC00360D002004494A78824203D901EB001026
:1010BC008230704700207047360D0020054A01EB46
:1010CC00410102EB41010268C1F80A218088A1F8B4
:1010DC000E017047360D002004494A78824203D92C
:1010EC0001EB0010801C704700207047360D00206B
:1010FC0010B54FF4C5720021054808F0EDFF054806
:10110C000021017041704FF46171418010BD0000ED
:10111C00360D00206C0100200B4B10B55C7884421E
:10112C0010D9184490F80201C0EBC000184490F894
:10113C0052310B70D0F853111160B0F857019080F8
:10114C00012010BD002010BD360D00200148408844
:10115C00704700006C01002005494A78824203D98F
:10116C00084490F83A0108B10020704701207047FC
:10117C00360D002001494870704700006C010020BA
:10118C000246094810B500780B4658B1074841781B
:10119C0041B10BB1801C01E00448823001F0B6FD76
:1011AC00012010BD002010BD6C010020360D002068
:1011BC00084910B5034600204A7806E00C1894F84C
:1011CC0002419C4204D0401CC0B28242F6D8082096
:1011DC0010BD0000360D0020F0B51A4C034600205F
:1011EC0025782BE0C0EBC00222440F7892F853C153
:1011FC0092F8526187EA0C075E403E444F7892F8B1
:10120C0054C187EA0C073E448F7892F855C187EA9F
:10121C000C073E44CF7892F856C187EA0C073E443F
:10122C000F7992F857C192F8582187EA0C073E447F
:10123C004F795740F74204D0401CC0B28542D1D8F8
:10124C000820F0BD360D00202DE9F047044600F1D2
:10125C0080054FF0010971B104F1A6077E1E01292A
:10126C0029D002294ED0032923D139463046BDE876
:10127C00F04707F01DBB4FF43E72002108F02CFF25
:10128C0085F825902449E96620460721296710F83E
:10129C00EC1F21F004010170FE2085F8A6007F20D0
:1012AC0068761E48A8600020C5E90000202084F85C
:1012BC00A402BDE8F0874FF00008A4F8368284F849
:1012CC002B82216916480A460844B0FBF1F0C4F899
:1012DC00C40040F6B830A4F8C800638B284600F070
:1012EC0021F83946304607F0E3FA08F0FDFD18B155
:1012FC00606900F0A9F910B184F81A82D9E784F872
:10130C001A92D6E70169B4F8DA32D4F8D422284616
:10131C00BDE8F04700F006B82F4904C400E0FCFF1C
:10132C007FC3C90110B50024A0F84C4030F8504FD1
:10133C004C43B4FBF2F420F8104940F2712463439F
:10134C0002EB03135B1EB3FBF2F3C381094BB3FB3C
:10135C00F2F35B1C83820389634302EB03135B1E72
:10136C00B3FBF2F3436003684B43B3FBF2F1016050
:10137C0010BD0000005A6202024991F9001007F0FA
:10138C008CBA00008401002008B57F208DF8000085
:10139C00684602F09FF840B105484078404241B29F
:1013AC009DF9000007F079FA08BD9DF9000008BD11
:1013BC0084010020014A1070517070478401002094
:1013CC002DE9F84FDFF878915E4F83464FF0010A14
:1013DC00002678683546007A8DF800000098009059
:1013EC009DF80010102906D199F8131019B1B9F80D
:1013FC001400002873D08DF80060684600F0ACF83B
:10140C009DF800100029F8D1002868D00446007A15
:10141C008DF80000009800909DF8008004F1080001
:10142C000521009001704046B8F1080F42D007DC4E
:10143C0002280DD0032817D0B8F1040F05D11DE0F8
:10144C000F2852D0B8F1100F59D040F24A2165E064
:10145C00626832B1594620469047042060F3070574
:10146C0010E040F2C31159E0626822B1594620469F
:10147C009047054606E04FF4E6714FE06168B1B164
:10148C0020468847C5F3072001284AD0EFF3108186
:10149C0072B6207A8DF80000009800909DF800003C
:1014AC00052842D0B0B366F30705A1B341E04FF471
:1014BC00EB7133E060685D4698B104882046FFF715
:1014CC0093FB80B16E700D212970EC80A5F808A0FB
:1014DC0085F804A0314606F088FE04203E61BDE884
:1014EC00F88FE5211AE0C52118E08BF80160162170
:1014FC008BF80010D4F80910CBF80410ADE71248A3
:10150C00026822B1606838B10088594690470220C1
:10151C003E61E4E709E00BE04FF410711020FEF798
:10152C00FDFE00984146017003E026723E61BCE767
:10153C0062B615F0FF0F3FF44CAFE8B2CFE70000F6
:10154C00380C0020640C0020840000200149087035
:10155C0000F064B88601002038B503461749002016
:10156C0018700869012440B1027A8DF80020009AA5
:10157C0000929DF80050002D11D14868027A8DF828
:10158C000020009A00929DF80050012D06D0EFF338
:10159C00108272B605684D6012B102E0002038BDB1
:1015AC0062B6027A8DF80020009A00929DF80050E5
:1015BC000DB1086138BD1C7038BD0000640C0020F2
:1015CC0038B5D0B1416000F108010A70EFF3108317
:1015DC0072B6104C0460211F4A684AB1127A8DF819
:1015EC000020009A00929DF80050012D00D10C6053
:1015FC000A68106008602BB105E040F275211020DC
:10160C00FEF78CFE62B604480078BDE8384005F061
:10161C00F9BF0000680C00208601002010B51422D0
:10162C000021084808F058FD064812220021143801
:10163C0008F052FD034801210173011D4160016056
:10164C0010BD0000640C0020F0B56FF01F02010CFF
:10165C0002EA90261F25A1F5AA4054380DD0A1F519
:10166C00AA40553809D0A1F52850AA3805D0A1F5C3
:10167C002A40AA3801D0012000E0002000221346A5
:10168C004FEA020482EA0107FF431F437F1C0FD07D
:10169C0006F00107520842EAC73205F001075B0861
:1016AC0076086D08641C43EAC733162CEAD3F0BDE8
:1016BC000020F0BD10B5044807F0D3F90248BDE88E
:1016CC001040083007F0CDB988000020014800F028
:1016DC0009B8000088000020014800F003B80000A1
:1016EC009000002010B5D0E90021094B094C534360
:1016FC005443514081EAB21282EA41224FEAF1414D
:10170C00C0E9002143EAD46303EB8303184610BD00
:10171C006037EFC6BB79379EF8B507F0C7F90446BA
:10172C000D466A4600F062F808B10120F8BD0F487A
:10173C00037841788B4201D10020F8BD1A464168EC
:10174C0008E000BF01EBC206521E56E9027CC6E956
:10175C00007CD2B29DF80060B242F3D8F2B201EB39
:10176C00C2015B1CC1E900450370DEE79800002054
:10177C0010B5420703D063214820FEF7CFFD20B1FE
:10178C00034A5170506000201070C80010BD00005A
:10179C009800002038B507F089F96A4600F026F861
:1017AC00002814D00A4A1078401EC1B211709DF85E
:1017BC000000526808E000BF02EBC003401CD3E9F4
:1017CC000245C3E90045C0B28842F5D3012038BDBB
:1017DC0098000020014900200870704798000020F4
:1017EC00014840787047000098000020F0B5204D6B
:1017FC00002313702B7823B300245B1EDBB2D5F8C7
:10180C0004C00BE0E5186D080CEBC506D6E90076B4
:10181C003F1A8E4101D22C4600E02B461D1B012D98
:10182C00F0DC0CEBC406D6E9005680EA050781EA29
:10183C00060E57EA0E0705D0451B71EB060503D2C1
:10184C00147010E0147011E00CEBC305D5E90045E1
:10185C0080EA040681EA05073E4306D0001BA94135
:10186C0000D35B1C13700020F0BD13700120F0BD81
:10187C009800002070B50446007C00B302281ED0EE
:10188C005FF0010004F1510184F850000D46C0B125
:10189C00E07DF0B1D4F81100C4F85100B4F8150093
:1018AC00A4F85500207C07F031F9207608206076EA
:1018BC0094F85000294607F015F9A8B90EE000205D
:1018CC00E0E70020FFF79CFB0028EBD140F2BA4187
:1018DC0001E040F2BE412D20FEF720FD94F85000AF
:1018EC00294607F008F900B10120A076207E30B11E
:1018FC0094F8570004F1580106F04DFF6076FFF79D
:10190C0025FC0C49A0FB012304F1480007F068FA00
:10191C000021204607F01DFA002084F85E00A07814
:10192C00400705D52046BDE87040002100F084BD7D
:10193C0070BD000040420F0030B50C468DB005461E
:10194C000146242202A808F04DFB0BA807F0A5FACB
:10195C00A07A8DF8180020788DF80800B4F80100F2
:10196C00ADF800009DF8000000F00101C0F340024A
:10197C0041EA4201C0F3800241EA8201C0F3C00295
:10198C0041EAC201C0F3001241EA0211C0F3401255
:10199C0041EA4211C0F3801041EA8010ADF80A0010
:1019AC00207D012806D0022804D040F2E92106202F
:1019BC00FEF7B4FC8DF80C00617A0BA807F054FA12
:1019CC00207D0121022802D1607D401CC1B2A07E85
:1019DC00401CC2B20BA807F00EFABDF80A000007B3
:1019EC0001D5002020E00BA807F017FABDF80A106B
:1019FC00282200F07DFD40F2712100F2DB20B0FBCB
:101A0C00F1F04843D4F8021040F271230A0A40F274
:101A1C0071214A43D4F80510090A5943904201D860
:101A2C00049204E0884201D8049000E00491A07C68
:101A3C008DF81700207E012800D000208DF81400AE
:101A4C00686B06F038FD686B06F0DDFD242202A9F8
:101A5C00284608F0C7FA0B98A862BDF83000A88594
:101A6C00E07A68B102280BD05FF0010085F85700CE
:101A7C00E068A865208AA5F85C000DB0002030BD98
:101A8C000020F3E70A4A10B500211170094C606080
:101A9C0000F022F810B140F22E3104E0A0680028CA
:101AAC0004D140F231312D20FEF738FC10BD00007E
:101ABC00780C0020A0000020024901488860704783
:101ACC00E4240000A000002002490860896809682D
:101ADC0008470000A0000020084810B5007810B19D
:101AEC000C24204610BD002418222146034808F07F
:101AFC00F3FA01F003FA01F021F9F2E7780C002077
:101B0C00044910B50978012901D100F0CDFB002062
:101B1C0010BD0000780C002010B504468078C0F38E
:101B2C00C00058B13C23FF222046E16900F0E2FBE3
:101B3C000222044904F16C0006F07FFF012084F8B6
:101B4C00690010BDF78C00002DE9F0410F00044630
:101B5C0023D004F12800054607F088F9B0B9A07825
:101B6C00C0F3C00050B3284607F057F90646284684
:101B7C0007F07CF9301AC0B207F0CDF901463548B0
:101B8C00426811444160284607F08EF9284607F058
:101B9C0050F90146204607F018F92F4D94F85E6075
:101BAC0000216868018007F091F86088132813D031
:101BBC0009DC102836D0122809D131E02046BDE8C6
:101BCC00F04100F071BB15280FD01D280DD040F24C
:101BDC0073612D20FEF7A2FB0021686806F0A6FEBB
:101BEC000121686807F072F820E00121686806F0AE
:101BFC009DFE0121686807F069F836B104F15F01B8
:101C0C00686806F0AEFE012106E004F15801686830
:101C1C0006F0A7FE94F85710686806F0A8FE05E0D9
:101C2C00062100E00221686806F080FE204600F0E4
:101C3C0031FC60881D2807D0152805D094F83C206D
:101C4C00A16B686806F062FE39462046BDE8F0419B
:101C5C0000F0F4B9780C0020A00000202DE9F04130
:101C6C002F4D80462878022805D02878032802D0EA
:101C7C0040F62D512BE02B4C2668307B18B1FFF72A
:101C8C0083FB86F82E00D4F804C00027B8F1000FAF
:101C9C009CF8000000F00F0627D02168C00901F164
:101CAC00510391F850200CF1090106F002FDE0B14E
:101CBC003946606806F01AFEB8B12A7820683146B9
:101CCC00022A07D02A78032A04D040F606512D2088
:101CDC00FEF724FBA2682B7852696FF0070606EB1F
:101CEC008303D2589047064600E00126A87B18B122
:101CFC0001F004F901F022F8002E0FD0206807F053
:101D0C0020F930B101F01CF9A0688068BDE8F04101
:101D1C0000472068BDE8F04100F0C6BABDE8F0818C
:101D2C00780C0020A000002010B5032902D0052952
:101D3C000AD102E000F04EFB03E00449096809B146
:101D4C00884708B1002010BD012010BDAC00002058
:101D5C00094A0300106801D000F0A6BA002909D086
:101D6C009168064A096912786FF00F0303EB82023F
:101D7C008958084770470000A0000020780C00200C
:101D8C0070B504464088102819D0104DA87B20B19E
:101D9C0000F0F4FF402001F0BFF80D48406801F05E
:101DAC00F3FAA078400704D400212279084601F008
:101DBC0073FB002001F0BAF90220287070BD204698
:101DCC00BDE870400121FFF7BFBE0000780C002079
:101DDC00A000002010B5124C206800F025F82068F7
:101DEC0007F0AFF8002820680BD00E490A78022AB9
:101DFC000BD00A78032A08D040F637412D20FEF785
:101E0C008DFABDE8104000F04FBAA2680978D2688C
:101E1C006FF0070303EB81015158BDE810400847F0
:101E2C00A0000020780C002010B5017B21B10446E5
:101E3C00FFF7AAFA84F82E000548807B002805D00D
:101E4C0001F05CF8BDE8104000F078BF10BD000058
:101E5C00780C00202DE9F0415C4D044686B02878C2
:101E6C00E8BB2078FF284BD04FF00008A5F80C8079
:101E7C00C5F8048085F8018085F8028084F86980B3
:101E8C00534B544E0FCB8DE80F00B0684068039055
:101E9C00684601F043F901F0D1F901F02FF800F098
:101EAC004DFF4D4801F022FB4C4801F029FB04F199
:101EBC002800074606F0F8FF384606F0BAFF014640
:101ECC00204606F082FF94F90E0001F03BFA2179CE
:101EDC00002001F0BFF80121A860A8B100E00FE0DC
:101EEC0004F13801606B06F055FB074604F1400124
:101EFC00606B06F052FB4FB194F8201051B905E01D
:101F0C000C2006B0BDE8F08129705CE020B194F89B
:101F1C00210008B1012700E00027A07E20B9207E17
:101F2C0010B9A078400723D5D4E912106FF0004205
:101F3C00504070EA010106D007F0C2FED4E912232A
:101F4C00801A994100D29FB1FFF700F92449A0FBF8
:101F5C00012304F1480006F043FF0121204606F05E
:101F6C00F8FEA078400703D50121204600F064FA62
:101F7C007068C01C06F002FCA873A078C00722D0C1
:101F8C00CDF81080FF20CDF81480E873E66906F1D7
:101F9C000A0713E0049CB44210D0727A607A3B4674
:101FAC0004F10A0106F085FB40B1A078E873D4F87F
:101FBC0003002861B4F80700A88204E004A8FEF727
:101FCC00E5FC0028E6D000209BE70000780C002000
:101FDC00C4240000A0000020D6BE898E55555500A3
:101FEC0040420F0010B50446FFF734FF002808D11B
:101FFC0004480078012803D000212046FFF7A4FDF7
:10200C00002010BD780C00200A4810B50A4904685D
:10201C00087800280DD00878022802D00878032808
:10202C0002D12046FFF700FF2046BDE8104000F02B
:10203C003BB910BDA0000020780C00202DE9F04128
:10204C00044629480D46406801F09EF9274E0420AD
:10205C00307055B36088102823D004F128008046D6
:10206C00B56806F0DAFE0746404606F0FFFE381A61
:10207C00401EC0B26188282200F05AFA0544A078AC
:10208C00C0F3C00030B17068054406F048FF284426
:10209C00C4F8D80022792946002001F08BF920B928
:1020AC000CE02179002000F09BFF6088132811D0F0
:1020BC0007DC102815D0122807D10BE040F6A851E8
:1020CC0005E0152806D01D2804D040F6BC512D2063
:1020DC00FEF724F92279BDE8F0410121002001F03E
:1020EC00DBB9BDE8F0810000A0000020780C0020D6
:1020FC0038B5044690F8BC000B468DF800000098EB
:10210C0000909DF8000000283AD1207884F8BD009A
:10211C00FF2B10D004F1BF02511E1846FEF7FCFF36
:10212C0030B194F8BE0040F0020084F8BE0011E01B
:10213C0041F2180121E0134840680178C1F3801185
:10214C0084F8BE10D0F80310C4F8BF10B0F8070024
:10215C00A4F8C30094F92E007F280CD084F8C50095
:10216C007F2084F82E0004F1B400BDE83840022230
:10217C00054906F062BC40F66C612D20FEF7CEF8E6
:10218C0038BD0000A0000020478D00002DE9FE4363
:10219C0016460446032904D094F8680008B10120BF
:1021AC0000E000200025032903D00127052905D0D4
:1021BC0008E0A1780227C1F3400101E0A178C9072A
:1021CC0000296BD0002869D13548DFF8D890807B86
:1021DC0080B106F0D6FA3070FF2814D0C0B26A462F
:1021EC0002A9FEF799FF48B169469DF8080006F070
:1021FC0056FC05463078FF2805D00DE040F69B7163
:10220C002D20FEF78BF8D9F8041011F8030BC0F34E
:10221C00801006F044FC0546D9F8041094F85720B9
:10222C0004F1580311F8030BC0F3801006F041FAC7
:10223C00D9F80410804611F8030BC0F3801006F097
:10224C00AAFA8146FEF788FF38B14846FEF744FFEC
:10225C0018B1102106F00EFB38B100213078FF28A0
:10226C000CD0B8F1000F05D101E00121F6E7627E38
:10227C00824201D1012003E0002001E028EA0100A4
:10228C00A278520701D530B908E039B91DB9E07B05
:10229C0008B1B84202D10120BDE8FE830020FBE763
:1022AC00780C0020A000002070B50446008E104D64
:1022BC00401C2086A87B002620B100F01FFE00F0F9
:1022CC003DFDAE732E7094F8690008B101210AE04F
:1022DC00607B38B1218E884204D80121204606F05B
:1022EC0042FE70BD00212046BDE8704006F03BBEAA
:1022FC00780C00202DE9F041044680F875300888F0
:10230C00A4F87600FF2084F893004FF6FF70164671
:10231C000D46A4F89400002B4BD1286906F063FA03
:10232C00A4F88C00288BA4F88E00688BA4F890007D
:10233C0095F81B0284F89200207E04F151010F469F
:10234C00002520B194F8500006F0D5FB40B994F864
:10235C006A0070B194F85000394606F0C3FB40B1E6
:10236C00D4F85100C4F88000B4F85500A4F88400E7
:10237C0003E0C4F88050A4F884501548FF2E406840
:10238C000178C1F3801184F8791050F8031F17D02D
:10239C00C4F886108088A4F88A0004F17A02511ED1
:1023AC003046FEF7B9FE30B114F8790F40F0020058
:1023BC002070BDE8F08140F68B412D20FDF7AEFF7B
:1023CC0044F87A1F8088A080E5602582F1E7000040
:1023DC00A0000020F8B50446FF208DF80000012570
:1023EC006A4603212046FFF7D1FEE8B1207B20B1DD
:1023FC009DF800102046FFF77BFE0D4E0021706803
:10240C000180042106F092FA204600F043F894F87B
:10241C004420216C706806F0C0FA0649052008704B
:10242C00706800F0B1FF00E000252846F8BD000000
:10243C00A0000020780C002070B504460E46407EAB
:10244C00FEF74AFE050019D0102106F013FA0028F9
:10245C0014D1012084F85E0004F15F0132460C4671
:10246C00284606F056F92146054C606806F079FAC4
:10247C006068BDE87040012106F079BA70BD0000BB
:10248C00A0000020024801210068FFF75DBB00009E
:10249C00A000002070B5074D044600F1510168689A
:1024AC0006F06CFA94F850106868BDE8704006F0BD
:1024BC006BBA0000A0000020E11D0000691C0000A8
:1024CC005D1D000000000000351D00008D1D00008A
:1024DC00EB8C0000F18C0000F11F000015200000B7
:1024EC0091240000E0240000D8240000D424000033
:1024FC0010B5421E022A01D9CA2109E0401E10293A
:10250C0009D012290CD013290AD0152905D0D821AD
:10251C002F20FDF703FF054904E00449891D01E064
:10252C000249891F31F8100010BD0000428F0000D5
:10253C00421E10B5D2B2012A03D91D2901D0EE21B9
:10254C000DE0132913D004DC10290BD0122904D16F
:10255C000DE0152908D01D290ED04FF481712F20C4
:10256C00FDF7DCFE074804E00648083001E00548AA
:10257C00001D30F8120010BD40F25A3110FB01F072
:10258C0010BD0000308F00002DE9F041044690F89A
:10259C00E00016460F4600285ED121464D4803F058
:1025AC0099FC0546202857D05022002104F1C80080
:1025BC0007F092FD84F8C8500125C4F8CC7084F85B
:1025CC00E05037B1FFF788F800F00700401C87F89F
:1025DC004C02204606F092FDA4F8F000022084F88C
:1025EC00F200A84684F8F350002504F8E85F04F0E4
:1025FC0097FD074607F05BFB2189E83C884200D831
:10260C0008463844CE3087B2204606F027FB30B35C
:10261C0007F09BFA00F5CD6081B2304604F082FEE3
:10262C003044C4F8EC00903407F04AFBC0196941FF
:10263C00C4E91A0184F8408024F86E5C012006F08D
:10264C006AFC00F21510301A60644FF0FF3041083C
:10265C00C4E91E01903C25E00C20BDE8F08100216E
:10266C00204606F018FDDFF87080C4F8EC0000205E
:10267C00B8F8041049B1618C39B1FFF72DF8B8F8EE
:10268C000410B0FBF1F201FB1200074407F018FB39
:10269C00C0196941C4E93E019EB1801951EB050195
:1026AC00C4E9420194F8C80004F1E80106F024FDE5
:1026BC0058B1A4F800510021204606F0FFFA002082
:1026CC00CBE74FF0FF304108EAE74FF4F7713020C9
:1026DC00FDF724FEE9910000B0000020014988803C
:1026EC0070470000B0000020054800210170012255
:1026FC008270417042F21071818000F003B80000CA
:10270C00B00000201CB50949D1E90001CDE9000158
:10271C0002E0009806F03BFC6846FEF737F900280B
:10272C00F7D000F00BF800201CBD0000AC27000017
:10273C000149087070470000B00000202DE9FC41F1
:10274C00164D0120687000244FF6FF760BE0002137
:10275C00FEF7CAF8070009D097F8A40203F0A2FA12
:10276C00384606F02EFD009401940EE04FF4917162
:10277C003020FDF7D3FD009838B190F8A412202931
:10278C0003D00088B042E2D104E06846FEF7FEF8C0
:10279C000028F0D06C70BDE8FC810000B000002077
:1027AC00000000000000010000000000000001001B
:1027BC0000000000141E000030110000F401FA00AB
:1027CC00960064004B0032001E0014000A00050045
:1027DC000200010070B544680D2204F598750021C3
:1027EC0004F16F0007F078FC4FF4A3700021A4F8FB
:1027FC0044110155A5F81710697608465FF07F0162
:10280C0004EB4002401CC0B282F874100228F7D3CB
:10281C0094F96E10204606F05EFD0020FF21221870
:10282C00401CC0B282F877100228F8D370BD0000AB
:10283C0003494A88028009788170002070470000A3
:10284C00380C00202DE9FC410F460546067807F0B0
:10285C008FF800280ED1284607F064F8002809D11B
:10286C0001213046FEF740F8040005D006F0B8FB15
:10287C0070B10C20BDE8FC8101213046FDF7FCFF56
:10288C00040013D0174890F90010204606F085F983
:10289C00204606F0EDF93870E87429462046FFF71B
:1028AC004BF80646687ED0B12EB118E041F22E519D
:1028BC003920FDF733FD00226846616B05F0FEFD03
:1028CC0000220121606B05F073FE04226846616BE7
:1028DC0005F0F4FD00221146606B05F069FE3046F0
:1028EC00C8E70000C4000020017871B1417861B1E3
:1028FC0041881B2909D381881B2906D30449026806
:10290C000A60808888800020704712207047000081
:10291C00380C0020006840F2E241884203D303499E
:10292C00886000207047122070470000380C00208F
:10293C00034AD2E904120160426000207047000093
:10294C00FC2B000070B586B0044600F0AFF94009CE
:10295C0040EAC1602D4EC00704F12C0502D07188ED
:10296C00B08801E01B210846E984288500F09EF917
:10297C0088074FF0010505D58DF800506846019485
:10298C00FFF728FFB068E06241F64C5121612188C5
:10299C00ADF80410B17B8DF80610F17B8DF80710A3
:1029AC00318AADF8081004A90091284603AB01AA9E
:1029BC00214607F02AF838B120880021FEF736F8B6
:1029CC0008B340F27D511BE09DF80C008DF814000B
:1029DC009DF810008DF81500BDF80800ADF8160034
:1029EC0005A9204605F005FF707800903378B28871
:1029FC0071882088FEF74CF8002805D04FF4B1619F
:102A0C003920FDF78BFC092006B070BD380C002076
:102A1C001CB50949D1E90001CDE9000105E0009898
:102A2C0006F0DEFA08B101201CBD6846FDF7AEFFCA
:102A3C000028F4D000201CBDFC2B000010B50D4864
:102A4C0000210D4BC17481821B221A804FF4A47497
:102A5C005C809A80DC808173C17303230370022332
:102A6C0043704280828040F6A6628260817401735A
:102A7C0010BD0000380C0020CC00002010B5012146
:102A8C000020FDF731FF04000AD10121FDF7F4FE0F
:102A9C00040007D0064890F90010204606F07DF897
:102AAC00204610BD40F213313920FDF737FC0000F1
:102ABC00C4000020F8B50C46054606F0DCF858B109
:102ACC00284606F0CBF848B1B4F80100122108B141
:102ADC00802803D90846F8BD4221FBE7284606F0BA
:102AEC00AEF820B1284606F019F810B105E00C211B
:102AFC00F0E7284606F0ACF820B1284606F070FA4C
:102B0C0030B901E01220F8BD284606F022F808B1D1
:102B1C000C20F8BD2846FEF7ADFEB4F8016042F279
:102B2C0010704643E178284606F080F8284606F0F7
:102B3C0091F8A8B100216846FDF74AFF040019D0AE
:102B4C000021FEF781FBBDF80000208021462846BD
:102B5C0006F0A8F8284606F085F868B101200EE0CA
:102B6C00324600212846FFF70FFD0028D1D041F254
:102B7C00687112E00D20F8BD284606F091F8014668
:102B8C002046FFF7DFFE0028F5D1324621462846C5
:102B9C00FFF7FAFC20B141F28B713920FDF7BEFB37
:102BAC000448436823B1002204F5997120469847E4
:102BBC000020F8BDC40000201CB50C49D1E902016D
:102BCC00CDE900010AE0009C204606F009FA28B184
:102BDC00204606F076F808B101201CBD6846FDF7CA
:102BEC00D5FE0028EFD000201CBD0000FC2B0000FF
:102BFC0000000000000001000000000000000100C7
:102C0C000D77100D59007710000000000000010036
:102C1C00000000000000010010B5FEF797FC054C09
:102C2C00606806F089FF06F02AFEFEF743FD0120DE
:102C3C00207010BDD40000200148007870470000BF
:102C4C00D400002010B5064CA06806F075FFE068B3
:102C5C0006F072FF06F015FE0020207010BD00007B
:102C6C00D400002010B50549054806F058FF04486B
:102C7C00BDE810400349001D06F051BFE4000020E0
:102C8C00D8000020EC00002001484078704700007C
:102C9C00D400002010B5FEF70FFFFFF725FDBDE8AF
:102CAC0010400148FEF7EEBED00E00200149D1E9DC
:102CBC0000017047200000200648018800790206B8
:102CCC0042EA112000F001000018C0B240F00100EF
:102CDC00704700002000002010B504F0D3FA002249
:102CEC00084B114633F82140844203D303EB810097
:102CFC00827803E0491CC9B20C29F3D30248027054
:102D0C0010BD00005A9B00008701002070B50546DD
:102D1C0016460C46022000F0BDF806490120F61EAE
:102D2C00087005480660044808380560001F0460F8
:102D3C0070BD00008801002010F5004010B50C4C4F
:102D4C00207880B10B494FF40000086000F06AF85D
:102D5C00002120B1012060700748006801E061701B
:102D6C001020A0702170BDE81040002000F092B837
:102D7C008801002008F5014000F4004010B5022045
:102D8C0000F088F804490120087000F059F8034954
:102D9C004FF40000086010BD8801002004F50140CC
:102DAC0003480021017041701021817070470000B0
:102DBC0088010020074810B5017841B100F032F8C5
:102DCC0018B105480068C0B210BD102010BD807845
:102DDC0010BD00008801002000F40040084810B528
:102DEC00017859B10748D0F8000128B100F00CF86F
:102DFC00002800D0012010BD022010BD407810BD6D
:102E0C008801002000F000400548D0F8041111B1F1
:102E1C00D0F8080108B1002070470120704700006D
:102E2C0000F00040054810B5D0F8000120B1FFF7C4
:102E3C00EBFF08B1012010BD002010BD00F00040D8
:102E4C0004480021C0F80011C0F80411C0F80811A2
:102E5C007047000000F0004070B5054D0024287844
:102E6C0010B100F00FF82C706C70AC7070BD0000DD
:102E7C008B01002002480021017041708170704765
:102E8C008B010020024901480860704700000202D3
:102E9C0008F5014010B5044600F020F8002C0ED0C7
:102EAC000B4A0B480B491432012C05D0022C07D0CD
:102EBC0082213D20FDF732FA02230360116010BD20
:102ECC0003230360116004494FF40000086010BD37
:102EDC0000F50040D410002004F50140054810B561
:102EEC00002101600160FFF7B7FF03494FF40000B8
:102EFC00086010BD00F5004008F501400548D0F809
:102F0C00001221F04001C0F800120021C0F8601539
:102F1C0070470000001000400449C1F86005D1F86A
:102F2C00000240F04000C1F8000270470010004061
:102F3C000249085C00F5166070470000323B000047
:102F4C00F8B5244CD4F8040310F0100F01D001276D
:102F5C0000E000271020C4F808030220C4F8000287
:102F6C001D4800251D4980F828504FF4602008604A
:102F7C00D4F850054FF4887610F0FF0F19D0FF20CD
:102F8C008DF80000C4F810510120206105E000BF4D
:102F9C009DF80000401E8DF800009DF8000028B13F
:102FAC003146204606F032FE0028F1D09DF8000094
:102FBC0058B100F0CDFBC4F8105100F035FD002FD6
:102FCC0002D01020C4F80403F8BD40F694013E2052
:102FDC00FDF7A4F900100040A00C002008F50140FA
:102FEC002DE9F041184D074695F82800C2070FD07F
:102FFC00164CD4F8002242F00102C4F8002240F032
:10300C00020085F8280001263FB1012F0BD010E0FB
:10301C0040F26F713E20FDF781F9084600F05EFD2D
:10302C006E72266005E0084600F03EFD02206872D4
:10303C0066600748C66406480C30D0F84015384620
:10304C00BDE8F04100F0C2BCA00C00200010004014
:10305C00008000402DE9F0472C4C06002C4D94F8D4
:10306C002800DFF8B08040F00200894684F8280080
:10307C004FF0000702D0012E20D036E0084600F0B9
:10308C002DFD01206072E079012805D1D5F80002F0
:10309C0040F00800C5F80002606A40F480106062DD
:1030AC004FF48010C8F800001B4931F819004FF498
:1030BC007A7100F5FA70B0FBF1F716E0084600F0F3
:1030CC00F3FC02206072E079012805D1D5F80002EA
:1030DC0040F00400C5F80002606A40F40010606221
:1030EC004FF40010C8F80000292700F09DFB06F0F3
:1030FC00D5FD20B1FFF724FF0020BDE8F0870021AB
:10310C00304600F063FC3846F7E70000A00C0020C6
:10311C000010004004F501402C3B000010B51DC808
:10312C00014981E81D0010BD900C002070B50F4CBA
:10313C0003460220207394F82150962094F8201016
:10314C00227D012D0ED000F027FD206108480021C2
:10315C00C0F844112169E06908440549091DC1F80A
:10316C00400570BD00F036FDEFE70000A00C00201C
:10317C00008000402DE9F04134220021134806F074
:10318C00ABFF00F051FC06F068FE114D104E002410
:10319C000F4F0835103628B906F076FE10B906F038
:1031AC007DFE08B1242206E006F0B8FE10B906F048
:1031BC00ABFE40B14022FF21384606F08DFF2C605B
:1031CC003460BDE8F0813822F5E70000A00C002047
:1031DC00000E004010B500F0DBFBFFF7B1FE04F071
:1031EC00CDFA30B1401C04D040F265513E20FDF7C1
:1031FC0095F80F480F4A416A41F044611160002470
:10320C0044620473C461846100F0C2FB0A48C0F8D4
:10321C004841C0F84441C0F84041C0F84C4101203D
:10322C0006F0E3FCBDE81040012006F0D1BC000024
:10323C00A00C002008F501400080004070B5012072
:10324C0006F0D3FC374C0020C4F8FC0F0120C4F866
:10325C00FC0F06F039FE344D18B1286840F480603C
:10326C00286006F025FE28B12868304920F0690056
:10327C000843286006F038FE38B12B48001D016861
:10328C0021F47F4141F4B0510160274928483C3179
:10329C00086004F0ADFA40B14FF08050D0F8300324
:1032AC00411C02D02049103108604FF01020006EF4
:1032BC00411C04D01F490A6860F317420A6040F2AF
:1032CC00031140F25B60C4F83415C4F838050120D2
:1032DC00C4F8300500F042F840F20120C4F8500662
:1032EC000220C4F8000214494FF0406008601349F2
:1032FC00002008861031C86181F82800012006F0F2
:10330C0067FC1020C4F804034FF0E0210220C1F840
:10331C0000010B480068002802D0BDE8704000474F
:10332C0070BD0000001000403C170040960000806B
:10333C002C0000898C15004004F50140900C0020F5
:10334C00F40000200149487570470000A00C0020D3
:10335C00014951F820007047803B0000084910B526
:10336C0008750849012806D0022806D040F66C5191
:10337C003E20FCF7D3FF032000E00420086010BDC2
:10338C00A00C0020101500400549C1F804050548A3
:10339C0010F8281F41F00101017000F00BBA000079
:1033AC0000100040A00C0020014951F8200070478B
:1033BC008C3B00002DE9F047304E314C884607001D
:1033CC0015464FF0010906D0012F12D040F6170117
:1033DC003E20FCF7A3FF104600F080FB294884F840
:1033EC00099030F81510404600F026FB0546304693
:1033FC000CE0104600F058FB0220607249F6BA71DE
:10340C00404600F019FB05461C48001D00F0D2FA9E
:10341C00DFF87480C8F84055DFF874A01B48CAF870
:10342C0010051020C6F80403606A4FF4002640F41F
:10343C00002060621748066000F0F6F94146C8F8B3
:10344C004C9011480C30D0F84005A84210D3002005
:10345C00C1F84005CAF81405606A20F400206062C7
:10346C000C48001D0660FFF76BFD0020BDE8F087DF
:10347C002946384600F0AAFA0120F7E70010004070
:10348C00A00C00202C3B000000800040408100403C
:10349C0098F0014004F501400D4B10B5D8719A72AB
:1034AC0051B102201872012808D002280FD040F622
:1034BC0044213E20FCF732FF0120F3E7587A022822
:1034CC0005D100F03BF9BDE8104000F049BA10BD41
:1034DC00A00C00200449D1F8481501F07F014942A5
:1034EC000170012070470000001000400349020EDB
:1034FC00C1F824250002C1F81C05704700100040DB
:10350C000149C1F83C0570470010004010B500227D
:10351C00012906D0022902D040F2D22114E04FF04A
:10352C0080720B490A430B490A600B49084309494D
:10353C00091D08600948D0F85005C0B2032801D015
:10354C000B2804D140F2EA213E20FCF7E7FE10BD27
:10355C000801100014150040000003020010004088
:10356C000149887570470000A00C00202DE9F04738
:10357C0051484FF0010AC0F84CA04F480C30D0F81D
:10358C00407506F089FB4D4CC4E90B0700F0E0F8E0
:10359C004B49606A0860DFF82C8100206062D8F823
:1035AC00002240F21D139A43C8F8002284F8280028
:1035BC0000F04EF9054640480830D0F840053E4E24
:1035CC00E061361DD6F84005A06194F82100217DFC
:1035DC0084F82010617A84F82110A1460024394621
:1035EC00284600F083F910B9C8F810A00124334F15
:1035FC00E807A7F1100720D1A80727D506F074FC1F
:10360C00F0B906F061FCD8B92F480068C0F3425CF1
:10361C00C0F3006300F00F02C0F30311C0F30328E2
:10362C0073B11AB111B1B8F1000F09D1C0F3044054
:10363C00012805D1BCF1030F02D2386880470EE097
:10364C0045F380002146401C7A6807E015F0280FEE
:10365C0005D045F34011BA682046491C9047E8064E
:10366C0001D5F868804799F809104846022920D1FD
:10367C00017B00291DD0022904D0012909D040F674
:10368C0056410DE0C169D9F810000844C6F8400550
:10369C000BE00169D9F81C00814204D840F657416F
:1036AC003E20FCF73BFEC6F84015BDE8F04700F0A5
:1036BC0061B9BDE8F087000000800040A00C00203C
:1036CC0008F5014000100040501400400B48817D6B
:1036DC000B48405C00F51660B0F5166F04D2A0F6EE
:1036EC00381040F4807001E0A0F51660054AC2F86D
:1036FC00080501F07F00C2F854057047A00C0020AB
:10370C00323B00000010004008B50B496B4691F9A4
:10371C001520897D00F0AAFA9DF9000000F07AFAD4
:10372C000DF1010004F04EF8002804D040F2E651EF
:10373C003E20FCF7F3FD08BDA00C00200348017AE5
:10374C00012902D1807AFFF7DFBF7047A00C00205F
:10375C000D4810B5407A01280CD0022813D104F082
:10376C0013F800280FD0401C0DD040F6AB013E20C2
:10377C00FCF7D4FD04F01AF8002804D0401C02D049
:10378C0040F6A501F3E710BDA00C0020084800216D
:10379C00C0F80011C0F80C11C0F81011C0F80411D9
:1037AC00C0F81411C0F81811C0F8081170470000C7
:1037BC0000100040184810B590F82800C10729D017
:1037CC00810714D51548D0F8001241F00101C0F85A
:1037DC000012D0F85005C0B20B2805D00A2803D02F
:1037EC00032801D0022815D140F20F610FE04007E9
:1037FC0010D50A480A490830C1F814054FF4A071D5
:10380C00084806F008FA002804D040F217613E2060
:10381C00FCF784FD10BD0000A00C0020001000403F
:10382C0098F001400080004008480146C27991F8A8
:10383C00281012B1012A03D006E041F0020101E088
:10384C0041F0040180F82810FFF7B4BFA00C002051
:10385C002DE9F041224D0024287B38B14FF4A271A0
:10386C00204806F0D8F908B1012700E00027687A53
:10387C001D4E4FF48671012802D0022806D016E0A6
:10388C00304606F0C3F990B1082410E0304606F03B
:10389C00BDF900B10224D6F80004C04340F3000087
:1038AC00401C01D144F004040FB144F0010414F0A5
:1038BC000B0F07D14FF48871304606F0A7F908B109
:1038CC0044F01004FFF762FFE00606D5200704D48D
:1038DC00687A012801D144F020042046BDE8F0812B
:1038EC00A00C002000800040001000402DE9F041A9
:1038FC001A4C0D46217A29B110F0110F07D0FFF7A1
:10390C001FFB24E000F090F8002020731FE0012939
:10391C0001D0012600E00026E07901280ED0002716
:10392C0000F082F89621304600F094F801464FB131
:10393C003B358D4204D90020BDE8F0810127EFE72B
:10394C000120E071A27A3046FFF734FD08B1012066
:10395C00F2E740F6A5213E20FCF7E0FCA00C00208D
:10396C000348D0F8001241F48871C0F80012704777
:10397C00001000400448416A41F48001416203494F
:10398C004FF4800008607047A00C002004F5014043
:10399C00074A002008320649C2F840050A1DC2F841
:1039AC004005C1F8400502490C31C1F8400570478B
:1039BC00008000400349C979002902D10249C1F8AD
:1039CC0014057047A00C002098F0014010B5144A63
:1039DC0020B1012811D040F253711CE001F12800F4
:1039EC00C2E902100F490E4803F0E6FE002815D07C
:1039FC00401C13D040F242710DE001F12900C2E9E4
:103A0C0002100849064803F0C5FE002806D0401CE9
:103A1C0004D040F24F713E20FCF780FC10BD00003A
:103A2C00F80000205C3B000002480021C1710172CB
:103A3C0041727047A00C0020054AD279012A06D0A9
:103A4C004FF47A7201F5FA71B1FBF2F1401A70473A
:103A5C00A00C002070B5134C03460D4694F82120A1
:103A6C0000205AB1214691F8201063B1012B11D1DD
:103A7C00012A284612D006F0D3F809E040F6580186
:103A8C003E20FCF74BFC012A284604D006F0D6F861
:103A9C00E169084470BD00F0D1F8F9E700F0C0F816
:103AAC00F6E70000A00C002010B5FFF757FCFFF75D
:103ABC000DFEFFF743FEFFF753FF06F015FA002843
:103ACC0008D106F001FA002804D10348016841F43A
:103ADC00C021016010BD00006815004010B50446FF
:103AEC00FFF73CFCFFF7F2FD2046FFF70DFE06F05A
:103AFC00FBF900280DD0094A11685006022CD0F8A9
:103B0C00200307D0C0F3062021F4FE4141EA002037
:103B1C00106010BDC0F30660F6E700008815004089
:103B2C0000002CA6E0A10406080A0C0E10121416B4
:103B3C00181C1E20222426282A2C2E3032343638EB
:103B4C003A3C3E40424446484A4C4E021A50000011
:103B5C0001000000101100400000000000000000F7
:103B6C00000000000000000000000000141E000017
:103B7C0030110000000000002800000018000000B8
:103B8C0000000000141E00003011000000000000B6
:103B9C0070170000A00F000070B5054614460846CB
:103BAC00FFF702FC05EB4501C1EBC511C0EBC101F0
:103BBC00074850F8240008444FF47A7100F6B730E7
:103BCC00B0FBF1F52046FFF7C3FB2844401D70BD48
:103BDC006C3C000070B50E4D1C46083D0C4B35F886
:103BEC00111000EB400553F82230C5EBC01001EB6F
:103BFC00C00003F6B73318444FF47A71B0FBF1F5FB
:103C0C001046FFF7A5FB28442044401D70BD000062
:103C1C006C3C00000149C0B2086070470C150040B4
:103C2C00054A32F811104FF47A7201F2E731B1FB08
:103C3C00F2F10844801E7047643C0000054A32F8DB
:103C4C0011104FF47A7201F57A71B1FBF2F108445C
:103C5C0070470000643C00000000DC05E803000035
:103C6C0000000000141E0000301100002DE9F84384
:103C7C001E4617460C46054600F056F8DFF8A49091
:103C8C00804699F80000A84210D199F801104846D6
:103C9C00A1420BD190F90210B94207D1C27842452A
:103CAC0004D1818831808079B07037E03A46214662
:103CBC00012D09D0022D09D0042D09D0082D09D0D1
:103CCC0040F2614106200CE0002004E0012002E0FB
:103CDC00032000E002206B4600F09EF818B13D2155
:103CEC007520FCF71BFB2046FFF722F90246002348
:103CFC0031469DF9000003F071FD014689F807106B
:103D0C003188A9F80410B17889F8061089F80050A8
:103D1C0089F8014089F8027089F8038099F9070045
:103D2C00BDE8F8839001002001480078704700003E
:103D3C001001002070B5174C6078002823D10120A9
:103D4C00607006F0ABF86FF0270528B906F0DCF8C8
:103D5C0010B906F0E3F820B10F486060A570082098
:103D6C0010E006F070F840B906F077F828B906F0C4
:103D7C008BF810B906F09CF830B107483130606010
:103D8C00A5700420E07070BD40F23F11742003F068
:103D9C0067FB0000100100203CA20000064A00B5A1
:103DAC0092F90320904201DB104600BD00F008F8A8
:103DBC000249085600BD0000100100202EA2000090
:103DCC000246134810B590F903309A4201DB0D20DE
:103DDC0010BD90F902309A4201DC002010BD01B1F7
:103DEC000121D41A4368185D0A4C24569442F5D02C
:103DFC00084C08443F34C0B2D2B2A342EED10029E1
:103E0C00ECD0012A01D0022AE8D1401CC0B210BD6E
:103E1C00100100202EA200002DE9F0411C46904616
:103E2C000D4606466FF01507042804D81CB105F0A2
:103E3C0010FFA84202D83846BDE8F081054842463A
:103E4C0050F8260018B14057824200DD024622701D
:103E5C000020F1E7D40C00200148007870470000E6
:103E6C001801002005490A78904201D300207047C0
:103E7C00496800EB400001EB00107047180100206E
:103E8C000D4910B591F8420020280FD091F842004E
:103E9C00A1F5906202EB401091F84210406802EBE1
:103EAC0041110A68BDE810400421104740F67F011B
:103EBC00702003F0D5FA0000780A002070B5054692
:103ECC00202A28D019481A4C00EB831C03EB43031F
:103EDC000CEB42002344202922D00CEB410140780A
:103EEC004C784870204601460CEB4100914205701D
:103EFC004078F8D193F82A20202A1ABF0CEB420202
:103F0C00547083F8294020220CEB410C8CF80120D2
:103F1C0083F82A1070BD40F28621702003F0A0FABD
:103F2C0093F82840407883F82800DBE7F809002054
:103F3C00780A00202DE9F04F8FB015461E460C462E
:103F4C0002F0FCF9281846F10001CDE90110D4E982
:103F5C000023801A71EB0300C0F0E58008A8DDF89F
:103F6C0060A00A90BC480AEB4A010844099090F8FA
:103F7C00285020200DF11C098DF81C00202D36D066
:103F8C00B648002600EB8A1BB548D4E9007300EB59
:103F9C00451050F8088FD0E9012118EB010172414E
:103FAC00791A73EB020122D3E189C9B1C089B8B97E
:103FBC0003F0B6F8B0F5C67F08BF0D200BD0A0F506
:103FCC004070563808BF1C2005D0A0F500709F38F3
:103FDC0014BF30463220401CB7EB0801814206DB8F
:103FEC000BEB450089F800504578202DCCD10A9870
:103FFC0099F80010202D0170DDF8289000F0288130
:10400C009648974F00EB8A100026049007EB451A50
:10401C000AF10800D4E90112D4F800B0D0E9008309
:10402C001BEB02027141B8EB020273EB010120D3CE
:10403C00C089002800F00C81E089002840F008813C
:10404C0003F06EF8B0F5C67F08BF0D200BD0A0F5BD
:10405C004070563808BF1C2005D0A0F500709F3862
:10406C0014BF30463220411CB8EB0B00884280F262
:10407C00EF8089F800509AF81800217C814207D211
:10408C00049800EB45004578202DBFD100F0E0B836
:10409C009DF8200007EB4010D0E90312D0F80890EF
:1040AC00C08A19EB020541EB0608B0BBE089A0B34E
:1040BC0003F036F8B0F5C67F08BF0D200BD0A0F585
:1040CC004070563808BF1C2005D0A0F500709F38F2
:1040DC0014BF30463220411CB5EB090088421CDA73
:1040EC0003F01EF8B0F5C67F08BF0D200BD0A0F56D
:1040FC004070563808BF1C2005D0A0F500709F38C2
:10410C0014BF304632209DF82010401C07EB4111A3
:10411C00D1E90223151843EB0608DDE90101491B1F
:10412C0070EB080003D20FB00020BDE8F08FC4E99B
:10413C00005818980B9008A80A9009980DF11C0AC1
:10414C0090F8285020208DF81C00202D37D04348A3
:10415C000B9900EB811B00BF07EB4510D4E90083E2
:10416C0050F8089FD0E9011219EB02027141B8EB2B
:10417C00020273EB010122D3E189C9B1C089B8B93C
:10418C0002F0CEFFB0F5C67F08BF0D200BD0A0F516
:10419C004070563808BF1C2005D0A0F500709F3821
:1041AC0014BF30463220411CB8EB0900884206DBB4
:1041BC000BEB45008AF800504578202DCCD10A989D
:1041CC009AF80010202D0170DDE90A8040D02349B7
:1041DC0001EB8010CDF80C0007EB451909F1080034
:1041EC00D4E90112D4F800B0D0E900A31BEB020211
:1041FC007141BAEB020273EB01011BD3C08938B3D6
:10420C00E08928BB02F08CFFB0F5C67F08BF0D20FB
:10421C000BD0A0F54070563808BF1C2005D0A0F577
:10422C0000709F3814BF30463220411CBAEB0B0093
:10423C0088420DDA88F8005099F81810207C8842D2
:10424C00BFF426AF039800EB45004578202DC3D171
:10425C000FB00120BDE8F08F780A0020F80900208B
:10426C00F80500202DE9F04383B0914604460D4635
:10427C00984601AA6946184602F07CF802F078FDCF
:10428C0002F05CF807461E4890F8421000262029E0
:10429C0009D08268C1680069831D46F10000D418FA
:1042AC0041EB000526E00A3445F10005B8F1000F9A
:1042BC0017D003F05DF8A0B902F032FFB0F5C67F5D
:1042CC0008BF0D200BD0A0F54070563808BF1C203D
:1042DC0005D0A0F500709F3814BF30463220041969
:1042EC007541B9F1000F05D10098874202D9381AEF
:1042FC000419754103B020462946BDE8F08300003F
:10430C00780A00202DE9FF4F81B0054602984A49F2
:10431C0000EB40000844002690F8284020209246EC
:10432C001070A1F59069202C36D0029909F58060A7
:10433C0000EB811B09EB4410D5E9007350F8088F92
:10434C00D0E9011218EB02027141BA1A73EB0101A8
:10435C0022D3E989C9B1C089B8B902F0E1FEB0F540
:10436C00C67F08BF0D200BD0A0F54070563808BF93
:10437C001C2005D0A0F500709F3814BF30463220A9
:10438C00411CB7EB0800884206DB0BEB44008AF8B3
:10439C0000404478202CCDD104989AF80010202CA1
:1043AC000170049F029842D0244901EB80100090C8
:1043BC00D5E90131D5F800B009EB441808F1080033
:1043CC001BEB010243EB0601D0E900A3BAEB02029E
:1043DC0073EB01011BD3C08948B3E88938BB02F0E9
:1043EC009FFEB0F5C67F08BF0D200BD0A0F5407026
:1043FC00563808BF1C2005D0A0F500709F3814BF9C
:10440C0030463220411CBAEB0B0088420FDA3C706C
:10441C0098F81810287C884203D305B00020BDE81A
:10442C00F08F009800EB44004478202CC0D105B0EC
:10443C000120BDE8F08F0000780A0020F809002068
:10444C002DE9FF5F9CB01F4602F0E4F904460D46CF
:10445C0002F08EFC06461E98012818BF022805D0D3
:10446C0040F656114FF0700002F0FAFFFE490120A1
:10447C000860FE498968086000208DF852000C9095
:10448C00401E0D90FA480DF1380800EB471000F172
:10449C00080191E80E1088E80E10D0E90610CDE95D
:1044AC0012100E9820F07F4005F00CFC0246BDF86F
:1044BC0046809DF84400EF4B4044411C50189A42F2
:1044CC0056D8ED4A91425BDC5242914260DB591C5A
:1044DC008142DCBF00F5F700A0F1F85005DD0028A3
:1044EC00BCBFA0F5F70000F1F8501790E348B8F105
:1044FC00000FB0F8A000ADF8500014BF4FF0010A47
:10450C004FF0000A02F034FF1990BAF1000F0BD0F3
:10451C00DB49D1E90E016FEA000272EA010002BF29
:10452C0019980028012701D04FF0000702F0F8FD80
:10453C00B0F5C67F08BF0D200BD0A0F540705638E3
:10454C0008BF1C2005D0A0F500709F3814BF0020B8
:10455C0032204FF00009CB461690464536D91799B4
:10456C00F343DFF810C3C818E9461AAA614504D909
:10457C0040F27F51702002F073FFBF498B4204DD83
:10458C004FF4B061702002F06BFFBE498B4204DA2D
:10459C0040F28151702002F063FFBB498142DCBFC5
:1045AC0000F5F700A0F1F85005DD0028BCBFA0F520
:1045BC00F70000F1F850494601F0DCFE00980E9926
:1045CC0020F07F400090081A20F07F49002F18BF80
:1045DC00DDF858B005D19DF85000002818BF4FF0F9
:1045EC00020BE04370EA050022D0DDE90E01221A2D
:1045FC0075EB01020CD2021B61EB0501B2F5000256
:10460C0071F1000111D340F69511702002F028FFD2
:10461C00221A65EB0101B2F5000271F1000104D31D
:10462C0040F69911702002F01BFF001B012803DAE1
:10463C001C981A9003200DE057B1914890F8400057
:10464C0030B19DF8500010F1000B18BF4FF0020B69
:10465C0000201A948344DDE90E02B0EB090062F1EC
:10466C000001421E1A9B41F1FF3ED31A5B4508DB49
:10467C00B9F1000F32D0109BCDE90E014B441093D1
:10468C002CE0B9F1000F05D09DF8510020B902F0D3
:10469C0065FB08B1AFB90CE02FB99DF850000028AC
:1046AC0018BFABF1020B4FF000098DF850904E463D
:1046BC0007E09DF8500020B100208DF85000ABF1C0
:1046CC00020BDDE90E02B0EB090062F10001421EA3
:1046DC001A9B41F1FF3ED31A5B457DDB199B9BB9BD
:1046EC00674BD3E90EC36FEA0C0979EA03090BD0C7
:1046FC00B0EB0C0C169861EB0303BCEB000073F1F0
:10470C00000038BF002000D301203AEA000063D13A
:10471C00DDE91C10CDE907011E989146CDE9187012
:10472C00F346002702F0FCFCB0F5C67F08BF0D2055
:10473C000BD0A0F54070563808BF1C2005D0A0F552
:10474C0000709F3814BF38463220DDE907320B3039
:10475C00B9EB02026BEB0303101A73F100002AD2BF
:10476C001998012802D0189848B117E0E04370EA74
:10477C00050027D140F6D701702002F071FEE0430E
:10478C0070EA05000AD01DD0B4EB090065EB0B01F3
:10479C000023D0F1040273EB010206DA4C465D46AD
:1047AC002046294601F016FF0CE00022101A72EB8D
:1047BC00010011DB06E04C465D462046294601F01F
:1047CC0009FF5746E14371EA050071D024F07F40A0
:1047DC004FF0000B0E9900E06FE00B1ADDF840C0B3
:1047EC0023F07F4311EB0C01081A20F07F40012BC2
:1047FC0063D3B3F5000F98BFB0F5000F5DD824F06C
:10480C007F4005F05FFA17991B4A0D1AAA1A7BF123
:10481C00000216D3184B421AD31A7BF1000310D3A3
:10482C00144BAB423EBFC0F5902000F1F45045183C
:10483C0007D3934245D2C1F5902101F1F4510844BC
:10484C004542DFF83C9099F8220078B31E98012875
:10485C0005D0022002F04AF9012002F047F9B045D8
:10486C0040D2A5EB060111E0080500402001002014
:10487C00F8050020FF7F841E0040420FF80900203D
:10488C00780A002000C0BDF00080841E4FF00200AA
:10489C0002F072F898B3B8F1000F1CBFA5EB080139
:1048AC00012035D002F068F848B331E00EE0FFE7A4
:1048BC0040F60321702002F0D3FD20B00020BDE8AB
:1048CC00F09F40F6D721702002F0CAFDB04534BFEE
:1048DC00304640461E30A842B8DB40F61721702007
:1048EC0002F0BEFD0CD9A5EB0801012002F044F842
:1048FC0028B1002E1CBFA91B022009D0D2E734E03E
:10490C0056EA080004D040F63A11702002F0A8FDD7
:10491C002946002002F030F838B30126BAF1000F16
:10492C0004BF99F84000002800D047B3D9E90E1015
:10493C006FEA010171EA000006D002F0F7FB4FF0BC
:10494C00FF300146C9E90E01FFB11698201A20F07C
:10495C007F414FF0050002F00FF870B399F840005A
:10496C00002808BF89F8406017E0022002F0BEF86A
:10497C00012002F0BBF820B00020BDE8F09FD9E97F
:10498C000E01C04370EA010012D099F8400020B12A
:10499C00052002F0ABF889F840B0A5EB0800A0F1B7
:1049AC00190100290FDC4FF42461702002F058FD2E
:1049BC0002F0D8FB01F0BEFFC4E7FFE740F2E621AE
:1049CC00702002F04DFD032001F0D6FF38B31648DD
:1049DC008068C0F800B01548C0F800B00CAC1448A2
:1049EC0094E80E10C0F88010C0F88420C0F888300D
:1049FC00C0F88CC010AC94E80E10C0F89010C0F841
:104A0C009420C0F89830C0F89CC0DDE91412C0F8AE
:104A1C00A010C0F8A42020B00120BDE8F09F40F603
:104A2C004821702002F01CFD2001002008050040E8
:104A3C00F809002070B51D4D95F84200202818BFCC
:104A4C0070BD95F8412002EB4200284490F82840B4
:104A5C00202C26D0164B03EB821101EB4401497834
:104A6C0080F82810FF2085F8310085F84240214657
:104A7C00022000F08BF8002085F8300085F8220029
:104A8C000C4800EB4410007E002808BF02F050FEDA
:104A9C00002009494968002908BF70BDBDE8704075
:104AAC00084740F21D31702002F0DAFC780A002031
:104ABC00F8090020F8050020200100202DE9F05F06
:104ACC00DFF8B88098F8415005EB4500404490F869
:104ADC002940202C08BFBDE8F09FDFF8A4B0DFF818
:104AEC00A490A9F5806A09EB8517072617F814001E
:104AFC0001280ED0042808BF02260AD005280CBFB6
:104B0C000326062805D04FF40A614FF0700002F01E
:104B1C00A7FCBBF1000F18BFAFF30080EFF31080C0
:104B2C0072B607EB44014A7805EB4501414481F824
:104B3C00292091F82A20A24204BF202281F82A20A1
:104B4C00A8B12A462146012000F020F80AEB4411B6
:104B5C00D1E900203146904798F8415005EB4500CB
:104B6C00404490F82940202CBDD1BDE8F09F064868
:104B7C00002818BFAFF3008062B6E2E7780A002085
:104B8C0000000000F809002000000000DFF858C009
:104B9C0010B500230CEB821C07281FD2DFE800F0B5
:104BAC00050505050404040001230CF81100002B75
:104BBC0008BF10BD02EB42020C48024492F82A00D6
:104BCC0020280EBF82F829100CEB400041702020E9
:104BDC000CEB4103587082F82A1010BD4FF417717A
:104BEC00702002F03DFC0000F8090020780A00203B
:104BFC002DE9F05F0F468046DFF854B101EB47001A
:104C0C005844B8F1010F90F82840254618BFB8F168
:104C1C00020F05D040F67E214FF0700002F020FC10
:104C2C00202D41D09BF822000026002808BF022628
:104C3C0001F0CAFCDFF81C9109EB441399681B695D
:104C4C000A1AC918091A22F07F4221F07F419642B4
:104C5C0099BFB2F5000FB1F5000F3F4A02EB871A6E
:104C6C0020D922460AEB42014C78202C12D009EBB9
:104C7C00441399681B69B1EB000CC918091A2CF084
:104C8C007F4C21F07F4166459CBFBCF5000FB1F510
:104C9C00000FE6D8202A05D03B4620210420FFF740
:104CAC000DF90446AC4213D12C48002818BFAFF3C1
:104CBC00008001F03FFE9BF84320202A0BD0DBE95B
:104CCC000232841C41F1000C1B1B72EB0C0202D251
:104CDC000020BDE8F09F202D13D02B464246FFF755
:104CEC00AFFB00281EBF8BF843500220BDE8F09F9D
:104CFC003B462A4620210420FFF7E0F80020BDE8BF
:104D0C00F09FDBE90E01C04370EA010005D002F010
:104D1C000DFA4FF0FF30CBE90E009BF8400028B1A4
:104D2C00052001F0E3FE00208BF84000042001F088
:104D3C00DDFE01F043FF0A4920208BF8430089680F
:104D4C0000200860074908600120BDE8F09F0000C2
:104D5C00780A0020F8050020F80900200000000067
:104D6C0020010020080500402DE9F04FDFF8C4B108
:104D7C0006468FB09BF842008A46202861D09BF8EB
:104D8C0042100BF10804ABF5906808EB4119202197
:104D9C008DF818109BF84110DBF8082001EB41014D
:104DAC005944002791F82850DBF8101051180A913B
:104DBC00DBF8000009AA304407A901F0DBFAD9F8A6
:104DCC0010000799D9F8082040181018672E3DD309
:104DDC0059490022891B72EB070137D3216894468D
:104DEC00401A20F07F41D1F500017CEB0C012DD352
:104DFC00A06008F5906084F810A090F841000DF1C7
:104E0C00180B202D55D008F5806101EB8010019016
:104E1C004A48D4E90131D4F800A000EB451808F158
:104E2C0008001AEB010243EB0701D0E90093B9EB40
:104E3C00020273EB010125D3C08998B3E08948B114
:104E4C0037E040F63531702002F00AFB0FB001203C
:104E5C00BDE8F08F02F064F9B0F5C67F08BF0D20F5
:104E6C000BD0A0F54070563808BF1C2005D0A0F51B
:104E7C0000709F3814BF38463220411CB9EB0A0031
:104E8C00884216DA8BF8005098F81800217C814281
:104E9C0009D321680A98401AA0600FB04FF00200A5
:104EAC00BDE8F08F05E0019800EB45004578202D1A
:104EBC00AED1052001F01AFE1E4D4FF0FF30686098
:104ECC0095F841309DF818202021202A03D0052088
:104EDC00FEF7F4FF04E003EB4300284490F82800AD
:104EEC0095F84120164901EB821195F8422001EB0F
:104EFC0042014870286830442860FF2085F8310052
:104F0C00687E01280AD1D4E901202368181842F1DF
:104F1C000001401E41F1FF3101F00AFC9DF8180020
:104F2C00202803D00748407802F06CFB0FB000201B
:104F3C00BDE8F08F780A00200040420FF8050020F1
:104F4C00F809002020010020F8B56F4D002605F56A
:104F5C0090640127D4E90E126C4B082873D2DFE859
:104F6C0000F00478A0B3CE47B8BDC84370EA020085
:104F7C0005D102F0F7F801F0DDFCC4E90E01E08A7E
:104F8C0010B102F0F5F980B1FFF754FDFF2084F861
:104F9C002F006168B1F1FF3F03D0052001F0ECFC5C
:104FAC0040B1607E012814D109E040F62C0170203C
:104FBC0002F056FA40F63101702002F051FAA26864
:104FCC002069E16810187141401E41F1FF3101F078
:104FDC00AFFB94F8420094F8421005EB4010406887
:104FEC0005EB41110A6801B00121BDE8F040104702
:104FFC0094F8400060B1C84370EA020005D102F099
:10500C00B1F801F097FCC4E90E0184F84060F8BDDA
:10501C00FFF710FD4FF0FF30606094F82F008DF813
:10502C0000009DF8000078B194F8420094F842100A
:10503C0005EB4010406805EB41110A6801B00621F0
:10504C00BDE8F04010475AE040F64801702002F0ED
:10505C0007FAFFF7EFFC84F82E7002F089F930B1F3
:10506C00D4E90E10C94371EA000005D00AE040F6FD
:10507C005601702002F0F4F902F074F801F05AFCB9
:10508C00C4E90E0194F8420094F8421005EB40106C
:10509C00406805EB41110A6801B00021BDE8F04001
:1050AC00104701F047FEE08A10B102F061F930B10F
:1050BC0001F054FE002818BF84F82170F8BD4FF49D
:1050CC000661702002F0CCF91148076098680760FF
:1050DC00F8BD1878BDE8F84002F094BAFFF7AAFCC6
:1050EC0094F8420094F8421005EB4010406805EB30
:1050FC0041110A6801B00521BDE8F040104740F6A7
:10510C007301702002F0ACF9F8050020200100209A
:10511C00080500402DE9F34FF74897B00C4600689E
:10512C00F64FC005C00D0ED0103840B20028B8BFE5
:10513C0000F00F0000F1E020ACBF90F8000490F8F4
:10514C00140D40090CD020784FF0000A002818BF2D
:10515C00012817D040F2F9614FF0700002F080F98D
:10516C0097F842004FF0010A202806D0207848B169
:10517C0040F2F561702002F073F940F2F261702098
:10518C0002F06EF9DFF878B3BBF1000F04D0002108
:10519C0040F2FC60AFF300800020CDE9100005A9BF
:1051AC001291D84917984FF0010801EB401001906B
:1051BC00BBF1000F04D0002140F20770AFF3008068
:1051CC00B8F1000F09D000BF97F84160002587F8AF
:1051DC003150BAF1000F07D03EE0CB48002818BF81
:1051EC00AFF3008062B6EFE7B146012020EA090672
:1051FC00C648402200EB891100EB861004F0F2FE49
:10520C00BBF1000F04D0002140F23C50AFF3008002
:10521C0009EB490106EB4600394438440A8D0285F6
:10522C0091F82A1080F82A10BBF1000F04D000214D
:10523C004FF4A860AFF30080BBF1000F04D0002145
:10524C0040F21170AFF3008097F831008DF8200018
:10525C009DF820000028ABD1BBF1000F04D0002139
:10526C0040F21B70AFF3008001F064FB814602A892
:10527C000A9088462189284661F31F400146A27A8C
:10528C00284662F30700E27A62F30F202278029537
:10529C0062F31740CDE90451CDE90605039520785A
:1052AC0080B3BDF816009A49081A0A9901F10C024C
:1052BC0014A901F05FF80022BDF8163048464146AB
:1052CC00FEF7D0FF8C46E17A00290CBF7A214A21E7
:1052DC0062689DF814301144BDF81620CDE9020C1B
:1052EC001A441144881C01F029F8009604904A468F
:1052FC00434620690A99FEF71DFE002808BFCDE938
:10530C00029846E0FFE74846414600F0B5FFDFF85B
:10531C0004C2024610EB0C0C0B4641F1000ED4E912
:10532C000401B0EB0C0C71EB0E0C29D2293243F1B9
:10533C000003821A71EB030222D322890AAB801A72
:10534C0061EB0501129A401E009241F1FF310DAA4A
:10535C0000F0B6FFE07A00280CBF7A204A200D99A5
:10536C0022890844616811440844801C00F0E6FF5F
:10537C00DDE90A12CDE90212401A20F07F4007E065
:10538C00B9F1010148F1FF30CDE902104FF47A7008
:10539C000490BBF1000F04D0002140F22270AFF357
:1053AC0000805A49DDF85C8001EB8611089111F8F8
:1053BC00181002A8012918BF022941D11195029A8F
:1053CC0029F07F41531ADDF810C023F07F4312EB14
:1053DC000C02511A21F07F41022B74D3B3F5000F4C
:1053EC0098BFB1F5000F6ED8012514AB0EAA31464B
:1053FC00FEF788FF00286DD09DF838109DF85020DE
:10540C0033468A426AD00520FEF758FD089901EB15
:10541C00480148709DF83800202801BF06EB460073
:10542C00384480F8288011951EBF089901EB400084
:10543C0080F80180324641465FF00300FFF7A6FB7F
:10544C00BBF1000F04D0002140F22770AFF30080B5
:10545C003148002818BFAFF30080EFF3108872B604
:10546C00BBF1000F04D0002140F22D70AFF300808F
:10547C0097F831008DF820009DF8200000287FF46B
:10548C0097AEBBF1000F04D0002140F23570AFF3A2
:10549C0000800DF1040E9EE80F1000F1080E8EE84E
:1054AC000E10DDE90612C0E9061225B3BBF1000FA0
:1054BC0004D0002140F24270AFF30080BAF1000F2B
:1054CC0046D12BE0FFE7324641460420FFF75EFB56
:1054DC000125B5E7324641460420AFE720291DBF20
:1054EC00089800EB4100407806EB460004BF3844B6
:1054FC0090F828008AE73BE004ED00E0780A0020F1
:10550C0000000000F805002000000000F809002051
:10551C00FF7F841E0040420F00000000119810F025
:10552C00FF0F15D097F84200202811D1BBF1000FC6
:10553C0004D0002140F24770AFF3008031460220C6
:10554C00FFF756FB109018B9207800B301282ED025
:10555C00BBF1000F04D0002140F26470AFF3008067
:10556C00FF20BAF1000F18BF87F8310029D00125B0
:10557C00BBF1000F04D0002140F27570AFF3008036
:10558C001098344C022825D001282BD02FE0BBF1E9
:10559C00000F04D0002140F24F70AFF3008097F859
:1055AC00412004201799FFF7F1FA0125E0E7BBF140
:1055BC00000F3FF4FDAD002140F25A70AFF30080B4
:1055CC00F6E597F841200121914387F8411087F8BF
:1055DC003100CCE7B868B0EB090004F073FB6168EC
:1055EC0021B904E061684FF0FF3001B18847B8F190
:1055FC00000F28D0BBF1000F04D000214FF4F16054
:10560C00AFF300809DB197F8410000EB40003844A7
:10561C0090F8290020280AD0BBF1000F04D00021FB
:10562C0040F28F70AFF30080607801F0EBFFBBF1BC
:10563C00000F04D0002140F29470AFF3008019B039
:10564C002846BDE8F08F0448002818BFAFF300804F
:10565C0062B6CFE720010020000000002DE9F04FDA
:10566C000446007895B018B115B00020BDE8F08F55
:10567C00D1480068C005C00D0ED0103840B20028CB
:10568C00B8BF00F00F0000F1E020ACBF90F80004B0
:10569C0090F8140D4009E7D00DA8DFF8209309907D
:1056AC00B9F1000F04D0002140F2C550AFF30080D7
:1056BC00DFF80C8398F84160002588F83150039589
:1056CC00B9F1000F04D0002140F2CA50AFF30080B2
:1056DC00012020EA060ABB48402200EB861100EBB1
:1056EC008A1004F07FFCB9F1000F04D0002140F2C5
:1056FC003C50AFF3008006EB46010AEB4A0001EB8D
:10570C0008024044118D018592F82A1080F82A1065
:10571C00B9F1000F04D000214FF4A860AFF3008062
:10572C00B9F1000F04D0002140F2CF50AFF300804C
:10573C0001F000F90F4606462189284661F31F4007
:10574C000146A27A284662F30700E27A0DF1280B93
:10575C0062F30F2022780A9562F31740CDE90C51C1
:10576C00CDE90E050B95207888B3BDF83610964818
:10577C000BF10C02401A11A900F0FCFD0022BDF83F
:10578C00363030463946FEF76DFD8446E07A0B46DE
:10579C0000280CBF7A204A2061689DF83420084408
:1057AC00BDF83610CDE90AC311440844801C00F042
:1057BC00C5FDCDF800A00C9032463B4659462069F9
:1057CC00FEF7B8FB002808BFCDE90A6745E0FFE704
:1057DC003046394600F050FD7C4B024610EB030C72
:1057EC008B4641F10003D4E90401B0EB0C0C71EBD6
:1057FC0003032AD229324BF10003821A71EB030204
:10580C0023D3228912AB801A61EB0501099A401E41
:10581C00009241F1FF3107AA00F052FDE07A002816
:10582C000CBF7A204A2007992289084461681144E8
:10583C000844801C00F082FD0146DDE91202CDE92E
:10584C000A02081A20F07F4006E0701E47F1FF3173
:10585C00CDE90A014FF47A700C90B9F1000F04D025
:10586C00002140F2D550AFF30080D8E90320D8F8DE
:10587C000810081842EB050198F84220202A09D09C
:10588C00DDE90A23121A73EB010203D2CDE90A01F6
:10589C0001200390B9F1000F04D000214FF4BC603B
:1058AC00AFF300800A9926F07F400A1A0C9B22F075
:1058BC007F42C918081A20F07F40B2F5000F98BF3C
:1058CC00B0F5000F0BD832463B460AA93F48CDF83D
:1058DC0000A0FEF72FFB0399084345D15FE0BDF80C
:1058EC0036B005AA03A9584600F044FD01F040FA71
:1058FC0000F024FD824698F8420020280AD0D8E90E
:10590C000320D8F80830801D45F100011E1842EB29
:10591C00010724E00A3647F10007BBF1000F17D04E
:10592C0001F026FDA0B901F0FBFBB0F5C67F08BF66
:10593C000D200BD0A0F54070563808BF1C2005D0A8
:10594C00A0F500709F3814BF2846322086196F418D
:10595C000398824503D9AAEB000086196F411F20DA
:10596C00CDE90A678DF83400DDE90A0100F084FC0A
:10597C00BDF83620801841EB05029DF83410401814
:10598C0042EB0501401C41F10001B9F1000FC4E9E3
:10599C00040104D0002140F2FA50AFF3008098F8D3
:1059AC0031008DF800009DF8000000287FF478AEDF
:1059BC0015B00120BDE8F08F04ED00E00000000000
:1059CC00780A0020F8090020FF7F841E0040420F57
:1059DC002DE9F14F9D4D8CB095F8410000200790BA
:1059EC00089001209A4CA5F180094FF00008074659
:1059FC00069024B1002140F2A570AFF30080069808
:105A0C0000283CD085F8318024B1002140F2AA70E6
:105A1C00AFF3008095F841A0402227EA0A0609EB73
:105A2C00861009EB8A11834604F0DCFA24B10021BC
:105A3C0040F23C50AFF3008006EB46000AEB4A0103
:105A4C002844294400900A8D028591F82A1080F888
:105A5C002A1024B100214FF4A860AFF3008095F810
:105A6C0031008DF808009DF8080078B1002C1CBF9F
:105A7C0000214FF4F660BCD0AFF30080B9E7754855
:105A8C00002818BFAFF3008062B6BBE724B1002139
:105A9C0040F2B470AFF300800C981BF81000032890
:105AAC007ED1009A0C9992F82800884214BF4FF0CE
:105ABC00000A4FF0010A02F1280C8346202209EB60
:105ACC00861303E0024603EB42004078884202D082
